:100000000C945E000C9486000C9486000C9483057E
:100010000C94BE060C9418070C9486000C94860071
:100020000C9486000C9486000C9486000C94860038
:100030000C9486000C9486000C9486000C94860028
:100040000C9411080C9486000C941B0A0C945E0A04
:100050000C9486000C9486000C9486000C94860008
:100060000C9486000C94860000000007000201003A
:100070000003040600000000000000000102040864
:100080001020408001020408102001020408102002
:10009000040404040404040402020202020203032E
:1000A0000303030300000000250028002B000000CC
:1000B0000000240027002A00B5021A0B11241FBEDD
:1000C000CFEFD8E0DEBFCDBF11E0A0E0B1E0E6EDBC
:1000D000FEE102C005900D92A632B107D9F712E0F9
:1000E000A6E2B1E001C01D92AD3BB107E1F710E01F
:1000F000CCEBD0E004C02297FE010E94410FC83B28
:10010000D107C9F70E945F0C0C94690F0C94000092
:1001100060E080E10E94140960E08EE00E94140912
:1001200060E082E10E94140960E083E10E9414090A
:1001300060E084E10E94140940E855E260E070E06C
:100140008FE092E00E94990A21E04CE251E061E1E7
:1001500070E08CE591E00E94CB0221E045E451E0A3
:1001600063E170E08CE591E00E94CB0221E043E185
:1001700051E062E170E08CE591E00E94CB0221E069
:100180004DE151E064E170E08CE591E00E94CB022A
:1001900021E04CE251E06FE070E08CE591E00E94DC
:1001A000CB0221E043E853E060E170E086E291E0B9
:1001B0000E94CB0221E043E853E06EE070E086E26B
:1001C00091E00C94CB0285E10E9495072AE0AC01F6
:1001D000249FC001259F900D11246FEF73E00E94B2
:1001E000090F882777FD8095982F0E94AA0E2DEC85
:1001F0003CEC4CEC50E40E94A40E881F8827881F1A
:1002000008950F931F93CF93DF93EC018A010E940F
:10021000CF03B801CE01DF91CF911F910F910C94C4
:100220002C04EF92FF920F931F93CF93DF93CDB7E0
:10023000DEB727970FB6F894DEBF0FBECDBF0E9482
:10024000E300882371F00E94E300882351F00E94AC
:10025000E300882331F083E690E0909301018093DE
:10026000000186E291E00E943503882369F186E26D
:1002700091E00E943503882309F46AC186E291E087
:100280000E943503882309F463C166E271E0CE0160
:1002900001960E94E00283E090E090930101809338
:1002A000000161E070E0CE0101960E945D0C813397
:1002B00009F0CBC062E070E0CE0101960E945D0CB7
:1002C000813309F0C2C023C18091000190910101E6
:1002D0008336910529F482E991E00E94930358C086
:1002E0008330910529F4609106017091070129C0BE
:1002F0008730910549F440910201509103014E511C
:1003000051096CEE7FEF40C08430910549F4409173
:100310000601509107014E51510966EF7FEF34C03D
:100320008530910541F44091060150910701BA01D1
:100330006852710929C0009731F4609102017091EF
:100340000301AB0121C08230910541F460910601A7
:1003500070910701AB014852510916C081309105D7
:1003600049F460910601709107016E51710946EFE1
:100370005FEF0AC0069761F460910201709103017A
:100380006E5171094CEE5FEF82E991E00E9401012C
:100390006CE571E0CE0101960E94E00261E070E040
:1003A000CE0101960E945D0CE82E62E070E0CE0165
:1003B00001960E945D0C082F63E070E0CE0101966B
:1003C0000E945D0CF82E64E070E0CE0101960E9460
:1003D0005D0C182F65E070E0CE0101960E945D0C67
:1003E00091E3E91203C086E090E026C0813319F45E
:1003F00087E090E021C091E081E3F81290E00133C2
:1004000029F4911111C081E090E016C0113329F454
:1004100091110DC084E090E00FC0992359F0109223
:100420000101109200010CC082E090E005C085E05F
:1004300090E002C083E090E090930101809300017E
:10044000CE0101960E94700B83C061E070E0CE0186
:1004500001960E945D0C813329F560910401709131
:10046000050182E991E00E940B0468EC70E080E0F5
:1004700090E00E948A0860910401709105014EECA1
:100480005FEF82E991E00E9401016AEF70E080E095
:1004900090E00E948A08409106015091070161EFA7
:1004A0007FEF2CC062E070E0CE0101960E945D0CEF
:1004B0006091040170910501813369F582E991E051
:1004C0000E940B0468EC70E080E090E00E948A08D3
:1004D00040910401509105016EEC7FEF82E991E0BB
:1004E0000E9401016AEF70E080E090E00E948A08BB
:1004F000609106017091070141EF5FEF82E991E0A1
:100500000E94010166E970E080E090E01EC0609109
:1005100004017091050182E991E00E940B046CE2F4
:1005200071E080E090E00E948A08409104015091BF
:100530000501609106017091070182E991E00E9436
:10054000010163E171E080E090E00E948A0878CFC9
:1005500027960FB6F894DEBF0FBECDBFDF91CF91C7
:100560001F910F91FF90EF90089582E991E00E9412
:10057000690365E070E08CE591E00E94C50263E0EC
:1005800070E086E291E00C94C502FC0111821082B9
:10059000738362830895FC01A081B181FD01EE0F98
:1005A000FF1FE80FF91F75836483518F408FFC0193
:1005B000EA0FFB1F24A71196FC01B183A0830895C5
:1005C000BF92CF92DF92EF92FF920F931F93CF9340
:1005D000DF93EC016B0162E171E00E94DE0B8601AA
:1005E000E12CF12CB12CF60182819381E816F906F9
:1005F00054F5F601EE0DFF1D84A5F801882381F066
:1006000084810E949507F801208D318D28173907C4
:1006100084F461E3CE010E94390CBB24B3940DC075
:1006200084810E949507F801208D318D28173907A4
:1006300084F760E3CE010E94390CFFEFEF1AFF0A46
:100640000E5F1F4FD0CFB11005C064E171E0CE0145
:100650000E94F50BCE01DF91CF911F910F91FF907A
:10066000EF90DF90CF90BF900895EF92FF920F939D
:100670001F93CF93DF937C01EC0100E010E0F701C2
:100680008281938108171907E4F4F701E00FF11F45
:1006900084A5882351F08C810E949507288D398D7F
:1006A0002817390754F481E00DC08C810E9495070A
:1006B000288D398D28173907B4F70F5F1F4F229601
:1006C000DECF80E0DF91CF911F910F91FF90EF90EF
:1006D000089561E087E00E94140961E088E00E94CB
:1006E000140961E082E00E94140961E084E00C9446
:1006F000140960E082E00E944D0960E084E00E94FD
:100700004D0960E070E085E00C94B20760E087E09E
:100710000E944D0960E088E00E944D0960E070E0B1
:1007200086E00C94B207CF93DF93EC010E9479032B
:10073000CE01DF91CF910C948603CF93C62F61E059
:1007400082E00E944D0960E084E00E944D096C2F18
:1007500070E085E00E94B207E0919301F09194016E
:10076000309711F081E08087CF910895CF93C62F05
:1007700060E082E00E944D0961E084E00E944D0942
:100780006C2F70E085E00E94B207E0919301F09138
:100790009401309711F08FEF8087CF91089516164E
:1007A000170614F40C949D037195619571090C94CE
:1007B000B603CF93C62F61E087E00E944D0960E049
:1007C00088E00E944D096C2F70E086E00E94B2071D
:1007D000E0919301F0919401309711F081E08187CD
:1007E000CF910895CF93C62F60E087E00E944D0916
:1007F00061E088E00E944D096C2F70E086E00E9465
:10080000B207E0919301F0919401309711F08FEFCE
:100810008187CF9108950F931F93CF93DF93EC01BE
:100820008B011616170654F40E949D03602FCE010B
:10083000DF91CF911F910F910C94D90311950195E0
:100840001109602F0E94B603602FCE01DF91CF9176
:100850001F910F910C94F2031616170614F40C94C2
:10086000D9037195619571090C94F2030F931F934D
:10087000FC0161157105B1F06130710529F5018543
:10088000112707FD1095212F312F44815581668155
:100890007781400F511F621F731F44835583668306
:1008A000778312C00085112707FD1095212F312F66
:1008B0004081518162817381400F511F621F731FFC
:1008C00040835183628373831F910F910895CF9268
:1008D000DF92EF92FF92E82FF0E0DF01A956BE4FC2
:1008E0008C918230F9F078F4813009F052C0EE0F2B
:1008F000FF1FE055FE4F0190F081E02DFF90EF903B
:10090000DF90CF900994833021F1843009F041C009
:100910008091950190919601FF90EF90DF90CF909C
:100920000C944707C090A801D090A901E090AA01BB
:10093000F090AB010E94670822E3C20ED11CE11CBB
:10094000F11CC616D706E806F90618F560E070E057
:1009500016C0C090AC01D090AD01E090AE01F09017
:10096000AF010E94670822E3C20ED11CE11CF11CFA
:10097000C616D706E806F90660F461E070E08091DB
:10098000930190919401FF90EF90DF90CF900C94A1
:100990003604FF90EF90DF90CF900895CF93C82F4B
:1009A00080910A0181FF02C0C1FF46C080910A0107
:1009B00081FD2CC0C1FF2AC080919E01823051F47C
:1009C0000E9467086093A8017093A9018093AA010F
:1009D0009093AB0180919E01833051F40E9467088F
:1009E0006093AC017093AD018093AE019093AF0121
:1009F00080919E01813051F40E945B086093A401B4
:100A00007093A5018093A6019093A70180910A019C
:100A100082FF16C0C2FD14C088E00E946704809166
:100A20000A0183FF3EC0C3FD3CC089E00E94670409
:100A3000C0930A01CF91089587E00E946704E6CF32
:100A400080910A0182FDEBCFC2FFE9CF80919F0127
:100A5000823051F40E9467086093A8017093A90145
:100A60008093AA019093AB0180919F01833051F450
:100A70000E9467086093AC017093AD018093AE0152
:100A80009093AF0180919F01813049F60E945B08ED
:100A90006093A4017093A5018093A6019093A70190
:100AA000BECF80910A0182FDC3CFC2FFC1CF80912A
:100AB000A001823051F40E9467086093A8017093EE
:100AC000A9018093AA019093AB018091A00183308A
:100AD00051F40E9467086093AC017093AD0180935C
:100AE000AE019093AF018091A001813009F0A0CFB9
:100AF0000E945B086093A4017093A5018093A601F6
:100B00009093A70195CF1F920F920FB60F921124C9
:100B10002F933F934F935F936F937F938F939F9305
:100B2000AF93BF93EF93FF9393B18091A301892378
:100B30000E94CE04FF91EF91BF91AF919F918F9151
:100B40007F916F915F914F913F912F910F900FBEC9
:100B50000F901F901895CF93C82F8091090180FFA7
:100B600002C0C0FF53C08091090180FD1EC0C0FFBC
:100B70001CC080919701823051F40E945B08609301
:100B8000A8017093A9018093AA019093AB01809171
:100B90009701833051F40E945B086093AC0170931D
:100BA000AD018093AE019093AF018091090181FF67
:100BB00031C0C1FD2FC081E00E946704809109010E
:100BC00082FF4CC0C2FD4AC082E00E94670480914F
:100BD000090183FF67C0C3FD65C083E00E9467040D
:100BE0008091090184FF82C0C4FD80C084E00E941E
:100BF00067048091090185FF9DC0C5FD9BC085E00C
:100C00000E946704C0930901CF91089580E00E947B
:100C10006704CBCF8091090181FDD0CFC1FFCECF3A
:100C200080919801823051F40E945B086093A80182
:100C30007093A9018093AA019093AB0180919801D0
:100C4000833009F0BBCF0E945B086093AC017093C6
:100C5000AD018093AE019093AF01B0CF80910901B7
:100C600082FDB5CFC2FFB3CF80919901823051F49C
:100C70000E945B086093A8017093A9018093AA0168
:100C80009093AB0180919901833009F0A0CF0E942D
:100C90005B086093AC017093AD018093AE019093BB
:100CA000AF0195CF8091090183FD9ACFC3FF98CF03
:100CB00080919A01823051F40E945B086093A801F0
:100CC0007093A9018093AA019093AB0180919A013E
:100CD000833009F085CF0E945B086093AC0170936C
:100CE000AD018093AE019093AF017ACF809109015D
:100CF00084FD7FCFC4FF7DCF80919B01823051F472
:100D00000E945B086093A8017093A9018093AA01D7
:100D10009093AB0180919B01833009F06ACF0E94D0
:100D20005B086093AC017093AD018093AE0190932A
:100D3000AF015FCF8091090185FD64CFC5FF62CF10
:100D400080919C01823051F40E945B086093A8015D
:100D50007093A9018093AA019093AB0180919C01AB
:100D6000833009F04FCF0E945B086093AC01709311
:100D7000AD018093AE019093AF0144CF1F920F92CB
:100D80000FB60F9211242F933F934F935F936F935E
:100D90007F938F939F93AF93BF93EF93FF9396B1FE
:100DA0008091A20189230E94AB05FF91EF91BF9131
:100DB000AF919F918F917F916F915F914F913F91F3
:100DC0002F910F900FBE0F901F901895CF93C82FA3
:100DD0008091080183FF02C0C3FF26C080910801F3
:100DE00083FD1EC0C3FF1CC080919D01823051F461
:100DF0000E945B086093A8017093A9018093AA01E7
:100E00009093AB0180919D01833051F40E945B0867
:100E10006093AC017093AD018093AE019093AF01EC
:100E2000C0930801CF91089586E00E946704F8CF2F
:100E30001F920F920FB60F9211242F933F934F934F
:100E40005F936F937F938F939F93AF93BF93EF9332
:100E5000FF9399B18091A10189230E94E606FF9139
:100E6000EF91BF91AF919F918F917F916F915F9122
:100E70004F913F912F910F900FBE0F901F9018959B
:100E800020E001972FEF8F3F9207D9F70895EF9257
:100E9000FF920F931F93CF93DF93EC018B899C8973
:100EA0000E94400708E010E0EE24E394F12C8D89C5
:100EB0009E890E944007EE85FF8580819D8589235C
:100EC00011F0FE2803C08E2D8095F822EE0C015003
:100ED00011090115110559F78F89988D0E94400756
:100EE0008091C5012091C40190E001968F739927EC
:100EF00030E08217930779F0E091C501F0E0EA5302
:100F0000FE4FF0828091C50190E001968F73992782
:100F10008093C50103C08B8D81608B8FDF91CF9152
:100F20001F910F91FF90EF9008958E3008F08E5032
:100F3000877020910B0190E4299F90011124822B4E
:100F400080937C0080917A00806480937A00809105
:100F50007A0086FDFCCF809178002091790090E0A6
:100F6000922B08951F93CF93DF93182FEB0161E02D
:100F70000E941409209711F460E004C0CF3FD1050E
:100F800039F461E0812FDF91CF911F910C944D09CD
:100F9000E12FF0E0E859FF4FE491E330F9F048F435
:100FA000E130B9F0E230A1F584B5806284BDC8BDFE
:100FB00034C0E630E9F0E73019F1E43049F58091CA
:100FC0008000806280938000D0938B00C0938A0061
:100FD00024C084B5806884BDC7BD1FC080918000D7
:100FE000806880938000D0938900C093880015C0EA
:100FF0008091B00080688093B000C093B3000DC0B2
:101000008091B00080628093B000C093B40005C0AE
:10101000C038D1050CF0B5CFAFCFDF91CF911F9184
:1010200008951F920F920FB60F9211242F933F93A2
:101030008F939F93AF93BF93809107029091080283
:10104000A0910902B0910A023091060223E0230F19
:101050002D3720F40196A11DB11D05C026E8230FF0
:101060000296A11DB11D2093060280930702909362
:101070000802A0930902B0930A0280910B0290919A
:101080000C02A0910D02B0910E020196A11DB11D9E
:1010900080930B0290930C02A0930D02B0930E026A
:1010A000BF91AF919F918F913F912F910F900FBE64
:1010B0000F901F9018952FB7F894609107027091C8
:1010C00008028091090290910A022FBF08953FB74C
:1010D000F89480910B0290910C02A0910D02B091B6
:1010E0000E0226B5A89B05C02F3F19F00196A11D41
:1010F000B11D3FBF6627782F892F9A2F620F711D70
:10110000811D911D42E0660F771F881F991F4A9528
:10111000D1F70895CF92DF92EF92FF92CF93DF93B2
:101120006B017C010E946708EB01C114D104E1044A
:10113000F10479F00E9467086C1B7D0B683E7340D8
:10114000A0F381E0C81AD108E108F108C851DC4FCA
:10115000ECCFDF91CF91FF90EF90DF90CF9008958B
:10116000789484B5826084BD84B5816084BD85B582
:10117000826085BD85B5816085BDEEE6F0E0808149
:1011800081608083E1E8F0E010828081826080836A
:10119000808181608083E0E8F0E0808181608083ED
:1011A000E1EBF0E0808184608083E0EBF0E080811F
:1011B00081608083EAE7F0E08081846080838081C1
:1011C0008260808380818160808380818068808369
:1011D0001092C1000895833081F028F4813099F095
:1011E0008230A1F008958630A9F08730B9F08430BC
:1011F000D1F4809180008F7D03C0809180008F7733
:1012000080938000089584B58F7702C084B58F7D68
:1012100084BD08958091B0008F7703C08091B000A5
:101220008F7D8093B0000895CF93DF9390E0FC0111
:10123000E458FF4F2491FC01E057FF4F849188232D
:1012400049F190E0880F991FFC01E255FF4FA591ED
:10125000B4918C559F4FFC01C591D4919FB76111FA
:1012600008C0F8948C91209582238C9388818223E6
:101270000AC0623051F4F8948C91322F3095832358
:101280008C938881822B888304C0F8948C91822B64
:101290008C939FBFDF91CF9108950F931F93CF93AE
:1012A000DF931F92CDB7DEB7282F30E0F901E85960
:1012B000FF4F8491F901E458FF4F1491F901E05771
:1012C000FF4F04910023C9F0882321F069830E9415
:1012D000EB086981E02FF0E0EE0FFF1FEC55FF4FA8
:1012E000A591B4919FB7F8948C91611103C01095AA
:1012F000812301C0812B8C939FBF0F90DF91CF91F1
:101300001F910F910895FC0124853585F901E05C5A
:10131000FF4F80819181F901EE5BFF4F2081318188
:10132000821B930B8F7399270895FC018485958503
:10133000FC01E05CFF4F40815181FC01EE5BFF4FFF
:10134000208131814217530741F00190F081E02D57
:10135000E80FF91F808190E008958FEF9FEF0895C7
:10136000FC0184859585FC01E05CFF4F4081518143
:10137000FC01EE5BFF4F208131814217530779F06A
:10138000A081B181A80FB91F8C91208131812F5F7D
:101390003F4F2F7333273183208390E008958FEFE1
:1013A0009FEF0895FC0181A1882329F0A489B589C4
:1013B0008C9186FFFBCF11A20895CF93DF93FC01A0
:1013C00026853785D901A05CBF4F8D919C911197DF
:1013D00001968F739927E901CE5BDF4F48815981D0
:1013E00084179507D9F30D90BC91A02DA20FB31FC0
:1013F0006C93A685B785A05CBF4F11969C938E9386
:10140000A689B7892C9181E090E0078C02C0880FF3
:10141000991F0A94E2F7282B2C9381E081A304887A
:10142000F589E02D80818064808381E090E0DF9108
:10143000CF91089508951F920F920FB60F92112425
:101440002F933F934F938F939F93EF93FF938091AD
:10145000C00082FD1CC04091C6008091B5029091F1
:10146000B60201968F7399272091B7023091B80286
:101470008217930771F0E091B502F091B602EB5834
:10148000FD4F40839093B6028093B50202C08091D5
:10149000C600FF91EF919F918F914F913F912F91B6
:1014A0000F900FBE0F901F9018958FE092E00E9452
:1014B0008309892B11F00C941A0A08951F920F9238
:1014C0000FB60F9211242F933F938F939F93EF9317
:1014D000FF9320917102309172028091730290917A
:1014E00074022817390731F48091C1008F7D8093F1
:1014F000C10014C0E0917302F0917402EF5CFD4FE3
:101500002081809173029091740201968F739927C4
:1015100090937402809373022093C600FF91EF9121
:101520009F918F913F912F910F900FBE0F901F9021
:101530001895CF92DF92EF92FF92CF93DF93EC0159
:101540006A017B01411581EE580761057105F9F0CB
:10155000EC89FD8981E090E008A002C0880F991F06
:101560000A94E2F7808360E079E08DE390E0A701E0
:1015700096010E941D0F21503109410951095695CC
:10158000479537952795211580E1380798F0EC8924
:10159000FD89108260E874E88EE190E0A701960171
:1015A0000E941D0F21503109410951095695479557
:1015B00037952795E889F9893083EA89FB89208363
:1015C00019A2EE89FF89408181E090E09C010C8C9A
:1015D00002C0220F331F0A94E2F7422B4083EE89A8
:1015E000FF8940819C010D8C02C0220F331F0A9499
:1015F000E2F7422B4083EE89FF8940819C010E8CEB
:1016000002C0220F331F0A94E2F7422B4083EE8977
:10161000FF8920810F8C02C0880F991F0A94E2F77E
:10162000809582238083DF91CF91FF90EF90DF90B0
:10163000CF900895109212021092110288EE93E05A
:10164000A0E0B0E08093130290931402A0931502DF
:10165000B09316028AE191E09093100280930F02FA
:1016600085E792E090931C0280931B0281E392E055
:1016700090931E0280931D0285EC90E090932002CF
:1016800080931F0284EC90E09093220280932102C9
:1016900080EC90E0909324028093230281EC90E010
:1016A000909326028093250282EC90E0909328028A
:1016B0008093270286EC90E090932A02809329027F
:1016C00084E080932B0283E080932C0287E0809358
:1016D0002D0285E080932E0281E080932F020895F1
:1016E000FC01808191810C942C0DCF93DF93EC0150
:1016F00088819981009711F00E942C0D198218821F
:101700001D821C821B821A82DF91CF9108950F9354
:101710001F93CF93DF93EC018B016F5F7F4F888125
:1017200099810E94BB0D009731F0998388831B83B8
:101730000A8381E001C080E0DF91CF911F910F917A
:101740000895CF93DF93EC0188819981892B29F04B
:101750008A819B818617970760F4CE010E94870BD0
:10176000882341F08C819D81892B19F4E881F981CE
:10177000108281E0DF91CF910895EF92FF920F9355
:101780001F93CF93DF93EC017B018A01BA010E9482
:10179000A10B811104C0CE010E94750B07C01D83EF
:1017A0000C83B701888199810E94620FCE01DF917D
:1017B000CF911F910F91FF90EF900895FC0111823E
:1017C00010821382128215821482168261157105AD
:1017D00059F0FB0101900020E9F7AF014150510998
:1017E000461B570B0C94BD0B0895CF93DF93EC0170
:1017F0006115710561F0FB0101900020E9F7AF016F
:1018000041505109461B570B0E94BD0B02C00E945C
:10181000750BCE01DF91CF910895EF92FF920F9358
:101820001F93CF93DF93EC017B010C811D81611528
:10183000710511F480E016C04115510591F0040FB7
:10184000151FB8010E94A10B8823A1F328813981BB
:101850008C819D81B701820F931F0E94620F1D83AF
:101860000C8381E0DF91CF911F910F91FF90EF905A
:101870000895CF93DF9300D0CDB7DEB769831A8286
:1018800041E050E0BE016F5F7F4F0E940D0C0F9052
:101890000F90DF91CF910895FC012481358162176B
:1018A000730748F480819181009729F0FC01E60FCD
:1018B000F71F8081089580E008950C944C0C0E94DD
:1018C000B0080E948800C5E5DAE00E941101209767
:1018D000E1F30E94550AF9CFCF92DF92EF92FF9287
:1018E0000F931F93CF93DF936C017A01EB01E60E08
:1018F000F71E00E010E0CE15DF0561F06991D6011A
:10190000ED91FC910190F081E02DC6010995080F41
:10191000191FF1CFC801DF91CF911F910F91FF9057
:10192000EF90DF90CF900895CF93DF9382309105B1
:1019300010F482E090E0E091BB02F091BC0220E064
:1019400030E0A0E0B0E0309739F140815181481794
:101950005907B8F04817590771F48281938110979D
:1019600029F013969C938E9312972CC09093BC02EF
:101970008093BB0227C02115310531F04217530770
:1019800018F0A901DB0101C0EF019A01BD01DF01DF
:101990000280F381E02DD7CF21153105F9F0281B06
:1019A000390B2430310580F48A819B8161157105E2
:1019B00021F0FB019383828304C09093BC02809347
:1019C000BB02FE01329644C0FE01E20FF31F819379
:1019D000919322503109398328833AC02091B9026A
:1019E0003091BA02232B41F420910E0130910F0166
:1019F0003093BA022093B90220910C0130910D016D
:101A00002115310541F42DB73EB740911001509199
:101A10001101241B350BE091B902F091BA02E217D3
:101A2000F307A0F42E1B3F0B2817390778F0AC0101
:101A30004E5F5F4F2417350748F04E0F5F1F5093DE
:101A4000BA024093B9028193919302C0E0E0F0E0C2
:101A5000CF01DF91CF910895CF93DF93009709F4E1
:101A600087C0FC01329713821282C091BB02D091D1
:101A7000BC02209781F420813181280F391F809189
:101A8000B9029091BA028217930779F5F093BA02DE
:101A9000E093B9026DC0DE0120E030E0AE17BF0771
:101AA00050F412964D915C9113979D01411551058B
:101AB00009F1DA01F3CFB383A28340815181840F0E
:101AC000951F8A179B0771F48D919C911197840F34
:101AD000951F02969183808312968D919C91139706
:101AE000938382832115310529F4F093BC02E0939E
:101AF000BB023EC0D9011396FC93EE9312974D9111
:101B00005D91A40FB51FEA17FB0779F480819181DD
:101B1000840F951F0296D90111969C938E93828112
:101B2000938113969C938E931297E0E0F0E08A8164
:101B30009B81009719F0FE01EC01F9CFCE010296CE
:101B400028813981820F931F2091B9023091BA0206
:101B50002817390769F4309729F41092BC021092C3
:101B6000BB0202C013821282D093BA02C093B902A0
:101B7000DF91CF9108956F927F928F929F92AF9253
:101B8000BF92CF92DF92EF92FF920F931F93CF936A
:101B9000DF93EC01CB01209781F4DF91CF911F916E
:101BA0000F91FF90EF90DF90CF90BF90AF909F90FC
:101BB0008F907F906F900C94940CFE01E60FF71FAE
:101BC0009E0122503109E217F30708F4ACC0D90195
:101BD0000D911C91119706171707B8F005301105E4
:101BE00008F49FC0A801445051094617570708F44C
:101BF00098C002501109061B170B019311936D93A6
:101C00007C93CF010E942C0D8CC05B01A01AB10AFD
:101C10004E01800E911EA091BB02B091BC02612CBE
:101C2000712C60E070E0109709F449C0A815B9055F
:101C3000C9F5ED90FC901197670142E0C40ED11CEC
:101C4000CA14DB0478F147018A189B08640142E05A
:101C5000C40ED11C1296BC9012971396AC91B5E0AD
:101C6000CB16D10440F0B282A38391828082D90145
:101C70008D939C9309C00E5F1F4F0E0D1F1DF90120
:101C800011830083EB2DFA2F6115710531F0DB0113
:101C90001396FC93EE93129744C0F093BC02E0932A
:101CA000BB023FC06D917C9111976616770608F4D0
:101CB0003B01BD0112960D90BC91A02DB4CF609157
:101CC000B9027091BA0268157905E9F468167906C7
:101CD000D0F440910C0150910D014115510541F492
:101CE0004DB75EB76091100170911101461B570B03
:101CF000E417F507C0F4F093BA02E093B902F901D2
:101D0000918380830EC00E94940C7C01009759F04F
:101D1000A801BE010E94590FCE010E942C0DC701DF
:101D200004C0CE0102C080E090E0DF91CF911F910E
:101D30000F91FF90EF90DF90CF90BF90AF909F906A
:101D40008F907F906F90089540D008F481E00895BF
:101D5000E89409C097FB3EF4909580957095619545
:101D60007F4F8F4F9F4F9923A9F0F92F96E9BB27FB
:101D70009395F695879577956795B795F111F8CF77
:101D8000FAF4BB0F11F460FF1BC06F5F7F4F8F4FE2
:101D90009F4F16C0882311F096E911C0772321F0D8
:101DA0009EE8872F762F05C0662371F096E8862F70
:101DB00070E060E02AF09A95660F771F881FDAF7C7
:101DC000880F9695879597F90895990F0008550FF4
:101DD000AA0BE0E8FEEF16161706E807F907C0F0B1
:101DE00012161306E407F50798F0621B730B840BB9
:101DF000950B39F40A2661F0232B242B252B21F493
:101E000008950A2609F4A140A6958FEF811D811D32
:101E1000089597FB072E16F4009407D077FD09D09C
:101E20000E94450F07FC05D03EF4909581959F4F89
:101E30000895709561957F4F0895A1E21A2EAA1B0F
:101E4000BB1BFD010DC0AA1FBB1FEE1FFF1FA2176A
:101E5000B307E407F50720F0A21BB30BE40BF50B67
:101E6000661F771F881F991F1A9469F760957095F0
:101E7000809590959B01AC01BD01CF010895EE0FB7
:101E8000FF1F0590F491E02D0994AA1BBB1B51E1A3
:101E900007C0AA1FBB1FA617B70710F0A61BB70BDA
:101EA000881F991F5A95A9F780959095BC01CD017F
:101EB0000895FB01DC0102C001900D924150504099
:101EC000D8F70895FB01DC0101900D920020E1F7A5
:061ED0000895F894FFCF15
:101ED6000300E60056FFAA00083F0E010000BD02FF
:101EE60080003100300000000000DD096C0C830921
:061EF600B0099509D209B4
:00000001FF
