:100000000C9464000C948C000C948C000C948C0068
:100010000C948C000C948C000C948C000C948C0030
:100020000C948C000C948C000C948C000C948C0020
:100030000C948C000C948C000C948C000C948C0010
:100040000C942A060C948C000C946A0A0C94AD0A49
:100050000C948C000C948C000C948C000C948C00F0
:100060000C948C000C948C0000000007000201002E
:100070000003040600000000000000000102040864
:100080001020408001020408102001020408102002
:10009000040404040404040402020202020203032E
:1000A00003030303000000002300260029000000D2
:1000B0000000250028002B0000000000240027007D
:1000C0002A004103690B5A0311241FBECFEFD8E069
:1000D000DEBFCDBF11E0A0E0B1E0E2EAFBE102C08B
:1000E00005900D92A635B107D9F712E0A6E5B1E06B
:1000F00001C01D92A534B107E1F710E0C6ECD0E0D5
:1001000004C02297FE010E94B00DC23CD107C9F77E
:100110000E94C00B0C94C40D0C9400008EE591E07D
:100120000E947F034CED50E063E082E691E00E9484
:100130000A0446E950E062E082E691E00E940A0487
:1001400046E950E061E082E691E00E940A0446E957
:1001500050E060E082E691E00E940A044CED50E03D
:1001600067E082E691E00E940A0440E855E260E020
:1001700070E086E991E00E94E80A6EE171E086E9AC
:1001800091E00E94C00910925B0110925A011092F6
:100190005D0110925C0181E080935601089541E079
:1001A00063E771E08BE791E00C9476050E94CF0045
:1001B0008091790190917A01883E9340C0F08091BE
:1001C000770190917801883E934088F08091750185
:1001D00090917601883E934050F081E02091730128
:1001E00030917401283E334018F080E0089581E09A
:1001F00008950F931F93CF93DF93EC010E94CF00DC
:1002000068E371E0CE010E943B0C03E711E0F801C6
:10021000819191918F01883E934010F461E301C078
:1002200060E3CE010E947E0C21E00B37120779F7C4
:10023000CE01DF91CF911F910F910895CF93DF935E
:10024000CDB7DEB727970FB6F894DEBF0FBECDBF90
:100250000E94D600882321F00E94D60081113DC063
:1002600062E671E0CE0101960E94200460E070E039
:10027000CE0101960E94910CFC018081813319F41A
:1002800084E090E025C064E070E0CE0101960E9419
:10029000910CFC018081813319F485E090E018C055
:1002A00061E070E0CE0101960E94910CFC0180811A
:1002B000813309F0A3C162E070E0CE0101960E9493
:1002C000910CFC018081813309F098C186E090E0B7
:1002D00090935B0180935A0130C0CE0101960E9439
:1002E000F90063E070E0CE0101960E94910CFC01E0
:1002F0008081813309F4F2C062E070E0CE010196A2
:100300000E94910CFC018081813309F4E7C061E017
:1003100070E0CE0101960E94910CFC018081813336
:1003200009F414C160E070E0CE0101960E94910CC6
:10033000FC018081813309F409C1CE0101960E943C
:10034000CD0B80915A0190915B010097C9F5809186
:1003500056016091060170910701882399F04427A6
:100360005527461B570B8EE591E00E949403809120
:10037000580190915901853691050CF491C0109265
:1003800056018EC080915701882369F0CB0177FD1B
:100390000396959587959595879591958195910962
:1003A000AB01BC012AC0AB0177FF02C04D5F5F4FBC
:1003B00055954795559547955195419551091DC0BE
:1003C0008130910549F460910601709107018EE535
:1003D00091E00E94F20364C08230910599F481E0BB
:1003E00080935701409106015091070160910401EB
:1003F000709105017195619571098EE591E00E94FA
:1004000094034EC08330910551F4109257014091EE
:1004100004015091050151954195510935C0843031
:10042000910561F481E0809357014091060150915C
:10043000070166277727641B750BDFCF8530910591
:1004400059F41092570160910601709107014427F9
:100450005527461B570BD1CF8630910561F481E0BB
:10046000809357014091060150910701609104016A
:1004700070910501C2CF8730910559F41092570150
:1004800040910401509105016091060170910701AE
:10049000B4CF8336910521F48EE591E00E947F036D
:1004A00080915A0190915B0120915C0130915D0136
:1004B0008217930711F01092560110925901109271
:1004C000580190935D0180935C0127960FB6F894D4
:1004D000DEBF0FBECDBFDF91CF91089560910401C3
:1004E000709105017195619571098EE591E00E9409
:1004F000F20360E971E080E090E00E94970663E01B
:1005000070E0CE0101960E94910CFC018081813344
:1005100009F04EC062E070E0CE0101960E94910C9D
:10052000FC018081813309F043C060910601709124
:10053000070144275527461B570B8EE591E00E9483
:1005400094036CE271E080E090E02FC061E070E025
:10055000CE0101960E94910CFC018081813351F4FF
:1005600062E070E0CE0101960E94910CFC01808156
:100570008133D9F161E070E0CE0101960E94910CC7
:10058000FC01208180910401909105016091060198
:1005900070910701213331F5AC018EE591E00E94A5
:1005A000940368EC70E080E090E00E949706C5CE6E
:1005B00062E070E0CE0101960E94910CFC01208166
:1005C0008091060190910701213331F46627772746
:1005D000681B790BAC01B1CF44275527481B590B39
:1005E000BC01ABCFAB01BC01D8CF609106017091CB
:1005F00007018EE591E00E94F203D3CF61E070E045
:10060000CE0101960E94910CFC018081813319F486
:1006100082E090E05DCE63E070E0CE0101960E9442
:10062000910CFC018081813369F462E070E0CE01BD
:1006300001960E94910CFC018081813319F487E0BE
:1006400090E046CE63E070E0CE0101960E94910CEE
:10065000FC018081813319F483E090E039CE62E0BF
:1006600070E0CE0101960E94910CFC0180818133E3
:1006700019F481E090E02CCE10925B0110925A01A7
:100680005CCE0F930FEF20EA3FE044E060E071E0C2
:100690008BE791E00E94DF0582E691E00E94F5037E
:1006A00005E026E04AE06BE08EE591E00E946403FD
:1006B0000F91089583E491E090937C0180937B01F6
:1006C0008BE791E00C9400060F93CF93DF93EC013E
:1006D000862F688349832A830B8361E00E94530835
:1006E00061E089810E94530861E08A810E94530879
:1006F00061E08B81DF91CF910F910C945308CF93E0
:10070000DF93EC0160E088810E948C0860E08981C1
:100710000E948C0860E08A810E948C0860E08B81D6
:10072000DF91CF910C948C08EF92FF920F931F935F
:10073000CF93DF93EC017B018A016115710561F4B0
:100740004115510509F043C0DF91CF911F910F91E1
:10075000FF90EF900C947F031616170644F48881DF
:100760000E94080960E089810E948C080BC060E04B
:1007700088810E948C08662777276E197F098981F6
:100780000E9408091016110674F4B8018A810E94AB
:10079000080960E08B81DF91CF911F910F91FF904D
:1007A000EF900C948C0801151105A9F060E08A8186
:1007B0000E948C0866277727601B710B8B81DF9165
:1007C000CF911F910F91FF90EF900C940809141690
:1007D000150664F7DACFDF91CF911F910F91FF904B
:1007E000EF900895AB010C94940325E0EFE0F1E065
:1007F000DC0101900D922A95E1F72AE0E4E1F1E0B5
:10080000DC01159601900D922A95E1F7FC01108A02
:1008100017860895FC0127853089253031057CF441
:10082000E20FF31F6083F901EE0FFF1FE80FF91FBE
:10083000568345832F5F3F4FFC01308B27870895F8
:10084000CF92DF92EF92FF920F931F93CF93DF939C
:100850008C017B0168E371E00E943B0CE7016701BA
:10086000E12CF12C89910E94EB08F601258136815B
:100870002817390714F461E301C060E3C8010E943E
:100880007E0CFFEFEF1AFF0A82E0C80ED11CE5E0F4
:10089000EE16F10439F7C801DF91CF911F910F9146
:1008A000FF90EF90DF90CF9008956F927F928F929C
:1008B0009F92AF92BF92CF92DF92EF92FF920F93EF
:1008C0001F93CF93DF93EC018B018A859B85892B46
:1008D00009F474C0D12C8C85D816E8F4ED2CF12CD9
:1008E0008E859F85F701EE0FFF1FE00FF11F9183AB
:1008F0008083EA85FB85EE0DFF1D61E080810E940B
:100900008C08EA85FB85EE0DFF1D61E080810E9469
:100910005308D394E0CF8AE090E00E94BD06D12C2A
:100920008C85D816A0F4ED2CF12CEA85FB85EE0D14
:10093000FF1D60E080810E945308EA85FB85EE0D73
:10094000FF1D60E080810E948C08D394E9CF0E9453
:1009500074066B017C010E9474066C197D098E0976
:100960009F092E853F854901A12CB12C6815790579
:100970008A059B0518F50E9474063B016C187D08DA
:10098000912C8C85981638F7A92CB12CAA85BB859B
:10099000AA0DBB1D8C910E94C208892B51F4F50150
:1009A000EE0FFF1FE00FF11F80819181681679061D
:1009B00010F09394E6CF71826082FBCFDF91CF91EC
:1009C0001F910F91FF90EF90DF90CF90BF90AF906D
:1009D0009F908F907F906F900895EF92FF920F936A
:1009E0001F93CF93DF931F92CDB7DEB77C018B01AE
:1009F000DC0113961C921E92129715961C921E9261
:100A0000149717961C921E92169719961C921E9276
:100A1000189751961C921E925097413120F080E118
:100A20001C968C9302C0FC014487D7011A968D91C5
:100A30009C911B97892B11F030E00FC0F701848542
:100A400090E029830E940307D7011B969C938E9305
:100A50001A972981892B81F715C0F70184853817EA
:100A600080F4832F90E0F801E80FF91F4081D7014F
:100A70001A96ED91FC911B97E80FF91F40833F5F99
:100A8000ECCF25870F90DF91CF911F910F91FF90B1
:100A9000EF900895CF93DF93EC018D858F3F69F040
:100AA00061E00E94530860E08D850E948C0888EC0C
:100AB00090E0DF91CF910C94BD06DF91CF91089526
:100AC000CF93DF93EC018D858F3F69F061E00E9449
:100AD000530861E08D850E948C0888EC90E0DF91DE
:100AE000CF910C94BD06DF91CF910895DF92EF92E4
:100AF000FF920F931F93CF93DF93CDB7DEB7A097ED
:100B00000FB6F894DEBF0FBECDBF8C017B01D42E93
:100B10008FEF840F823020F4C8010E94600503C06B
:100B2000C8010E944A05D801ED91FC910190F08125
:100B3000E02DB701C8010995C8010E944A05B2E03D
:100B4000DB122FC0D801ED91FC910190F081E02DD6
:100B5000BE016F5F7F4FC801099540E0F8018485B1
:100B60004817F8F4842F90E0880F991FF701E80FD9
:100B7000F91F21E030E02C0F3D1F820F931FD80199
:100B80001E962D913C911F97DC018D919C91281B05
:100B9000390B80819181820F931F918380834F5FF6
:100BA000DDCFA0960FB6F894DEBF0FBECDBFDF91AC
:100BB000CF911F910F91FF90EF90DF900895EF92EA
:100BC000FF920F93CF93DF93EC017901202F83E401
:100BD00091E0998388831B821A821D821C821F8266
:100BE0001E82198618861B861A86CE010E94ED0485
:100BF000FF86EE86DF91CF910F91FF90EF900895E1
:100C0000CF93DF93EC018DE391E0998388838A850C
:100C10009B85009711F00E949B078C819D81009716
:100C200011F00E949B0788859985009711F00E941A
:100C30009B078A819B81009711F00E949B078E8100
:100C40009F81009721F0DF91CF910C949B07DF915A
:100C5000CF9108951F920F920FB60F9211242F93E8
:100C60003F938F939F93AF93BF9380918E01909109
:100C70008F01A0919001B091910130918D0123E0FD
:100C8000230F2D3720F40196A11DB11D05C026E8C4
:100C9000230F0296A11DB11D20938D0180938E011B
:100CA00090938F01A0939001B09391018091920154
:100CB00090919301A0919401B09195010196A11D8D
:100CC000B11D8093920190939301A0939401B093EE
:100CD0009501BF91AF919F918F913F912F910F906F
:100CE0000FBE0F901F9018953FB7F8948091920116
:100CF00090919301A0919401B091950126B5A89B84
:100D000005C02F3F19F00196A11DB11D3FBF6627F9
:100D1000782F892F9A2F620F711D811D911D42E03E
:100D2000660F771F881F991F4A95D1F70895CF92B4
:100D3000DF92EF92FF92CF93DF936B017C010E94D1
:100D40007406EB01C114D104E104F10479F00E94AE
:100D500074066C1B7D0B683E7340A0F381E0C81ADB
:100D6000D108E108F108C851DC4FECCFDF91CF91F9
:100D7000FF90EF90DF90CF9008950197009739F0A2
:100D8000880F991F880F991F02970197F1F708950F
:100D9000789484B5826084BD84B5816084BD85B556
:100DA000826085BD85B5816085BDEEE6F0E080811D
:100DB00081608083E1E8F0E010828081826080833E
:100DC000808181608083E0E8F0E0808181608083C1
:100DD000E1EBF0E0808184608083E0EBF0E08081F3
:100DE00081608083EAE7F0E0808184608083808195
:100DF000826080838081816080838081806880833D
:100E00001092C1000895CF93DF938230910510F4C2
:100E100082E090E0E0914302F091440220E030E073
:100E2000A0E0B0E0309739F140815181481759076F
:100E3000B8F04817590771F482819381109729F00F
:100E400013969C938E9312972CC090934402809398
:100E5000430227C02115310531F04217530718F01E
:100E6000A901DB0101C0EF019A01BD01DF01028090
:100E7000F381E02DD7CF21153105F9F0281B390B6F
:100E80002430310580F48A819B816115710521F040
:100E9000FB019383828304C09093440280934302B6
:100EA000FE01329644C0FE01E20FF31F819391933D
:100EB00022503109398328833AC020914102309170
:100EC0004202232B41F420910A0130910B0130930F
:100ED000420220934102209108013091090121151D
:100EE000310541F42DB73EB740910C0150910D01F1
:100EF000241B350BE0914102F0914202E217F30707
:100F0000A0F42E1B3F0B2817390778F0AC014E5F79
:100F10005F4F2417350748F04E0F5F1F5093420272
:100F2000409341028193919302C0E0E0F0E0CF0151
:100F3000DF91CF910895CF93DF93009709F487C095
:100F4000FC01329713821282C0914302D091440275
:100F5000209781F420813181280F391F809141022F
:100F6000909142028217930779F5F0934202E09341
:100F700041026DC0DE0120E030E0AE17BF0750F443
:100F800012964D915C9113979D014115510509F100
:100F9000DA01F3CFB383A28340815181840F951F7F
:100FA0008A179B0771F48D919C911197840F951F5F
:100FB00002969183808312968D919C9113979383CF
:100FC00082832115310529F4F0934402E093430212
:100FD0003EC0D9011396FC93EE9312974D915D910B
:100FE000A40FB51FEA17FB0779F480819181840F64
:100FF000951F0296D90111969C938E9382819381BD
:1010000013969C938E931297E0E0F0E08A819B8187
:10101000009719F0FE01EC01F9CFCE01029628816C
:101020003981820F931F209141023091420228178B
:10103000390769F4309729F4109244021092430260
:1010400002C013821282D0934202C0934102DF9108
:10105000CF910895833081F028F4813099F0823067
:10106000A1F008958630A9F08730B9F08430D1F42A
:10107000809180008F7D03C0809180008F77809366
:101080008000089584B58F7702C084B58F7D84BDBC
:1010900008958091B0008F7703C08091B0008F7D5C
:1010A0008093B0000895CF93DF9390E0FC01E45863
:1010B000FF4F2491FC01E057FF4F8491882349F1B1
:1010C00090E0880F991FFC01E854FF4FA591B4915F
:1010D00082559F4FFC01C591D4919FB7611108C003
:1010E000F8948C91209582238C93888182230AC066
:1010F000623051F4F8948C91322F309583238C9385
:101100008881822B888304C0F8948C91822B8C93E5
:101110009FBFDF91CF9108950F931F93CF93DF93DC
:101120001F92CDB7DEB7282F30E0F901E859FF4F05
:101130008491F901E458FF4F1491F901E057FF4FF2
:1011400004910023C9F0882321F069830E942A08B2
:101150006981E02FF0E0EE0FFF1FE255FF4FA591F0
:10116000B4919FB7F8948C91611103C010958123BD
:1011700001C0812B8C939FBF0F90DF91CF911F9166
:101180000F910895CF93DF93282F30E0F901E859AC
:10119000FF4F8491F901E458FF4FD491F901E057D2
:1011A000FF4FC491CC2391F081110E942A08EC2FAB
:1011B000F0E0EE0FFF1FEC55FF4FA591B4912C917D
:1011C0002D2381E090E021F480E002C080E090E0F7
:1011D000DF91CF9108958E3008F08E508770209166
:1011E0000E0190E4299F90011124822B80937C00B2
:1011F00080917A00806480937A0080917A0086FDE5
:10120000FCCF809178002091790090E0922B089596
:101210001F93CF93DF93182FEB0161E00E945308D7
:10122000209711F460E004C0CF3FD10539F461E0AC
:10123000812FDF91CF911F910C948C08E12FF0E06A
:10124000E859FF4FE491E330F9F048F4E130B9F0A8
:10125000E230A1F584B5806284BDC8BD34C0E630FB
:10126000E9F0E73019F1E43049F5809180008062BF
:1012700080938000D0938B00C0938A0024C084B5F3
:10128000806884BDC7BD1FC0809180008068809346
:101290008000D0938900C093880015C08091B00071
:1012A00080688093B000C093B3000DC08091B000FF
:1012B00080628093B000C093B40005C0C038D105EF
:1012C0000CF0B5CFAFCFDF91CF911F910895CF92A2
:1012D000DF92EF92FF920F931F93CF93DF936C01F6
:1012E0007A01EB01E60EF71E00E010E0CE15DF05F7
:1012F00061F06991D601ED91FC910190F081E02DB2
:10130000C6010995080F191FF1CFC801DF91CF91D0
:101310001F910F91FF90EF90DF90CF90089561158E
:10132000710581F0DB010D900020E9F7AD0141501E
:101330005109461B570BDC01ED91FC910280F381B2
:10134000E02D099480E090E00895DC01ED91FC919E
:101350000190F081E02D09940F931F93CF93DF93B9
:10136000EC016DE00E94A5098C016AE0CE010E94AB
:10137000A509800F911FDF91CF911F910F910895C3
:101380000F931F93CF93DF93EC010E948F098C0181
:10139000CE010E94AC09800F911FDF91CF911F9168
:1013A0000F910895FC0124853585F901E05CFF4F1C
:1013B00080819181F901EE5BFF4F20813181821B99
:1013C000930B8F7399270895FC0184859585FC0103
:1013D000E05CFF4F40815181FC01EE5BFF4F2081BB
:1013E00031814217530741F00190F081E02DE80F61
:1013F000F91F808190E008958FEF9FEF0895FC0121
:1014000084859585FC01E05CFF4F40815181FC01A2
:10141000EE5BFF4F208131814217530779F0A081A5
:10142000B181A80FB91F8C91208131812F5F3F4F6F
:101430002F7333273183208390E008958FEF9FEF40
:101440000895FC0181A1882329F0A489B5898C9194
:1014500086FFFBCF11A20895CF93DF93FC01268571
:101460003785D901A05CBF4F8D919C911197019652
:101470008F739927E901CE5BDF4F4881598184172B
:101480009507D9F30D90BC91A02DA20FB31F6C93BB
:10149000A685B785A05CBF4F11969C938E93A689B5
:1014A000B7892C9181E090E0078C02C0880F991FCA
:1014B0000A94E2F7282B2C9381E081A30488F58914
:1014C000E02D80818064808381E090E0DF91CF9186
:1014D000089508951F920F920FB60F9211242F9323
:1014E0003F934F938F939F93EF93FF938091C0000F
:1014F00082FD1CC04091C60080913C0290913D024B
:1015000001968F73992720913E0230913F028217F6
:10151000930771F0E0913C02F0913D02E450FE4FE0
:10152000408390933D0280933C0202C08091C600AC
:10153000FF91EF919F918F914F913F912F910F903C
:101540000FBE0F901F90189586E991E00E94D20976
:10155000892B11F00C94690A08951F920F920FB60F
:101560000F9211242F933F938F939F93EF93FF93A9
:101570002091F8013091F9018091FA019091FB01DD
:101580002817390731F48091C1008F7D8093C10005
:1015900014C0E091FA01F091FB01E854FE4F208164
:1015A0008091FA019091FB0101968F739927909396
:1015B000FB018093FA012093C600FF91EF919F9168
:1015C0008F913F912F910F900FBE0F901F90189504
:1015D000CF92DF92EF92FF92CF93DF93EC016A01FB
:1015E0007B01411581EE580761057105F9F0EC8921
:1015F000FD8981E090E008A002C0880F991F0A943D
:10160000E2F7808360E079E08DE390E0A701960146
:101610000E948C0D21503109410951095695479579
:1016200037952795211580E1380798F0EC89FD89D9
:10163000108260E874E88EE190E0A70196010E94B4
:101640008C0D21503109410951095695479537951F
:101650002795E889F9893083EA89FB89208319A2D3
:10166000EE89FF89408181E090E09C010C8C02C0F2
:10167000220F331F0A94E2F7422B4083EE89FF8941
:1016800040819C010D8C02C0220F331F0A94E2F7A7
:10169000422B4083EE89FF8940819C010E8C02C061
:1016A000220F331F0A94E2F7422B4083EE89FF8911
:1016B00020810F8C02C0880F991F0A94E2F7809551
:1016C00082238083DF91CF91FF90EF90DF90CF90C6
:1016D0000895109299011092980188EE93E0A0E08D
:1016E000B0E080939A0190939B01A0939C01B093EA
:1016F0009D0189E491E090939701809396018CEF8E
:1017000091E09093A3018093A20188EB91E09093E4
:10171000A5018093A40185EC90E09093A7018093AC
:10172000A60184EC90E09093A9018093A80180EC3D
:1017300090E09093AB018093AA0181EC90E09093AC
:10174000AD018093AC0182EC90E09093AF01809367
:10175000AE0186EC90E09093B1018093B00184E0FB
:101760008093B20183E08093B30187E08093B4015A
:1017700085E08093B50181E08093B60108950895D6
:101780000E94C8060E948E00C4EADAE00E941E0190
:101790002097E1F30E94A40AF9CFFC018081918196
:1017A0000C949B07CF93DF93EC018881998100977C
:1017B00011F00E949B07198218821D821C821B82D5
:1017C0001A82DF91CF9108950F931F93CF93DF93E8
:1017D000EC018B016F5F7F4F888199810E94A30C80
:1017E000009731F0998388831B830A8381E001C0CD
:1017F00080E0DF91CF911F910F910895CF93DF93F8
:10180000EC0188819981892B29F08A819B81861737
:10181000970760F4CE010E94E40B882341F08C818D
:101820009D81892B19F4E881F981108281E0DF9193
:10183000CF910895EF92FF920F931F93CF93DF9371
:10184000EC017B018A01BA010E94FE0B811104C0E8
:10185000CE010E94D20B07C01D830C83B701888183
:1018600099810E94BD0DCE01DF91CF911F910F9103
:10187000FF90EF900895FC01118210821382128272
:101880001582148216826115710559F0FB010190D1
:101890000020E9F7AF0141505109461B570B0C944A
:1018A0001A0C0895EF92FF920F931F93CF93DF933B
:1018B000EC017B010C811D816115710511F480E043
:1018C00016C04115510591F0040F151FB8010E9473
:1018D000FE0B8823A1F3288139818C819D81B7017A
:1018E000820F931F0E94BD0D1D830C8381E0DF9149
:1018F000CF911F910F91FF90EF900895CF93DF93B9
:1019000000D0CDB7DEB769831A8241E050E0BE0156
:101910006F5F7F4F0E94520C0F900F90DF91CF911D
:101920000895FC01848195816817790720F48081EE
:101930009181009729F41092400280E492E008958A
:10194000860F971F08956F927F928F929F92AF920A
:10195000BF92CF92DF92EF92FF920F931F93CF939C
:10196000DF93EC01CB01209781F4DF91CF911F91A0
:101970000F91FF90EF90DF90CF90BF90AF909F902E
:101980008F907F906F900C940307FE01E60FF71F76
:101990009E0122503109E217F30708F4ACC0D901C7
:1019A0000D911C91119706171707B8F00530110516
:1019B00008F49FC0A801445051094617570708F47E
:1019C00098C002501109061B170B019311936D93D8
:1019D0007C93CF010E949B078CC05B01A01AB10AC7
:1019E0004E01800E911EA0914302B0914402612CE1
:1019F000712C60E070E0109709F449C0A815B90592
:101A0000C9F5ED90FC901197670142E0C40ED11C1E
:101A1000CA14DB0478F147018A189B08640142E08C
:101A2000C40ED11C1296BC9012971396AC91B5E0DF
:101A3000CB16D10440F0B282A38391828082D90177
:101A40008D939C9309C00E5F1F4F0E0D1F1DF90152
:101A500011830083EB2DFA2F6115710531F0DB0145
:101A60001396FC93EE93129744C0F0934402E093D4
:101A700043023FC06D917C9111976616770608F47A
:101A80003B01BD0112960D90BC91A02DB4CF609189
:101A900041027091420268157905E9F468167906E9
:101AA000D0F440910801509109014115510541F4CC
:101AB0004DB75EB760910C0170910D01461B570B3D
:101AC000E417F507C0F4F0934202E0934102F901F4
:101AD000918380830EC00E9403077C01009759F018
:101AE000A801BE010E94B40DCE010E949B07C70150
:101AF00004C0CE0102C080E090E0DF91CF911F9141
:101B00000F91FF90EF90DF90CF90BF90AF909F909C
:101B10008F907F906F900895A1E21A2EAA1BBB1B95
:101B2000FD010DC0AA1FBB1FEE1FFF1FA217B307A9
:101B3000E407F50720F0A21BB30BE40BF50B661FBF
:101B4000771F881F991F1A9469F760957095809583
:101B500090959B01AC01BD01CF010895EE0FFF1FD1
:101B60000590F491E02D0994FB01DC0102C0019085
:101B70000D9241505040D8F70895FB01DC010190CF
:101B80000D920020E1F7089510E0C6ECD0E004C00B
:101B9000FE010E94B00D2296C83CD107C9F7F89407
:021BA000FFCF75
:101BA20003020904C800FF0000004502800001FF93
:101BB200FFFFFFFFFFFFFFFFFFFFFFFFFFFF53746A
:101BC200617274696E672053756D6F205265706F14
:101BD2007274696E672E2E2E0000000000BF0B008B
:101BE2000000005504000000002C0A6709D209FF1A
:061BF20009E409210A00CC
:00000001FF
