:100000000C9464000C948C000C948C000C948C0068
:100010000C948C000C948C000C948C000C948C0030
:100020000C948C000C948C000C948C000C948C0020
:100030000C948C000C948C000C948C000C948C0010
:100040000C948F060C948C000C944E0B0C94910B1A
:100050000C948C000C948C000C948C000C948C00F0
:100060000C948C000C948C0000000007000201002E
:100070000003040600000000000000000102040864
:100080001020408001020408102001020408102002
:10009000040404040404040402020202020203032E
:1000A00003030303000000002300260029000000D2
:1000B0000000250028002B0000000000240027007D
:1000C0002A002A034D0C430311241FBECFEFD8E0B2
:1000D000DEBFCDBF11E0A0E0B1E0E2EAFBE102C08B
:1000E00005900D92A436B107D9F712E0A4E6B1E06D
:1000F00001C01D92A335B107E1F710E0C6ECD0E0D6
:1001000004C02297FE010E94B00DC23CD107C9F77E
:100110000E94A90A0C94C40D0C9400008CE691E096
:100120000E94C8034AEF50E063E080E791E00E943C
:10013000620346E950E062E080E791E00E946203DA
:1001400046E950E061E080E791E00E94620346E901
:1001500050E060E080E791E00E9462034AEF50E0E7
:1001600067E080E791E00E94620340E855E260E0CA
:1001700070E085EA91E00E94CC0B66E271E085EACE
:1001800091E00E94A90910926901109268011092F1
:100190006B0110926A0181E08093640162E087E064
:1001A0000E94910761E088E00E94910760E088E08A
:1001B0000E94CA0787E00E9400080197D9F30895BA
:1001C00041E061E871E089E891E00C945F050E94EC
:1001D000E000209187013091880180910E0190917B
:1001E0000F012817390720F12091850130918601F0
:1001F00080910C0190910D0128173907C8F02091CA
:1002000083013091840180910A0190910B0128179C
:10021000390770F081E04091810150918201209175
:100220000801309109014217530718F080E0089542
:1002300081E00895EF92FF920F931F93CF93DF9386
:10024000EC010E94E00060E471E0CE010E94290A06
:1002500001E811E088E0E82E81E0F82EF801219114
:1002600031918F01F701819191917F012817390711
:1002700010F461E301C060E3CE010E94830AF1E063
:1002800009381F0759F7CE01DF91CF911F910F91C8
:10029000FF90EF900895CF93DF93CDB7DEB72E9701
:1002A0000FB6F894DEBF0FBECDBF0E94E7008823D3
:1002B00021F00E94E70081110FC161E471E0CE01DD
:1002C00008960E94290A60E771E0CE0101960E941B
:1002D0007803BE016F5F7F4FCE0108960E94400AEF
:1002E000CE0101960E94BB0960E070E0CE01089645
:1002F0000E94960AFC018081813319F484E090E029
:100300000CC064E070E0CE0108960E94960AFC01E1
:100310008081813339F485E090E090936901809386
:1003200068012BC061E070E0CE0108960E94960A39
:10033000FC018081813319F482E090E0EECF63E02C
:1003400070E0CE0108960E94960AFC0180818133FC
:1003500019F483E090E0E1CF62E070E0CE0108960E
:100360000E94960AFC018081813319F481E090E0BB
:10037000D4CF1092690110926801CE0108960E94B4
:10038000BB0980916801909169010097C9F580913E
:1003900064016091060170910701882399F0442758
:1003A0005527461B570B8CE691E00E94DD03809198
:1003B000660190916701853691050CF46FC010922B
:1003C00064016CC080916501882369F0CB0177FDE1
:1003D0000396959587959595879591958195910922
:1003E000AB01BC0157C0AB0177FF02C04D5F5F4F4F
:1003F00055954795559547955195419551094AC051
:100400008130910549F460910601709107018CE6F5
:1004100091E00E943B0442C08230910579F481E072
:10042000809365014091060150910701609104019C
:10043000709105017195619571092CC0833091050A
:1004400071F410926501409104015091050151959C
:100450004195510960910601709107011BC08430DC
:10046000910561F481E0809365014091060150910E
:10047000070166277727641B750B0CC0059771F47D
:10048000109265016091060170910701442755277C
:10049000461B570B8CE691E00E94DD0380916801BA
:1004A0009091690120916A0130916B018217930745
:1004B00011F01092640110926701109266019093FE
:1004C0006B0180936A012E960FB6F894DEBF0FBEC3
:1004D000CDBFDF91CF910895CE0101960E941A0100
:1004E00063E070E0CE0101960E94960AFC018081D3
:1004F000813351F062E070E0CE0101960E94960ACD
:10050000FC0180818133C1F5609104017091050186
:100510007195619571098CE691E00E943B0460E958
:1005200071E080E090E00E94FC0663E070E0CE01A4
:1005300001960E94960AFC018081813309F064C013
:1005400062E070E0CE0101960E94960AFC01808173
:10055000813309F059C06091060170910701442769
:100560005527461B570B8CE691E00E94DD036CE299
:1005700071E080E090E043C061E070E0CE01019660
:100580000E94960AFC018081813351F060E070E0A6
:10059000CE0101960E94960AFC018081813389F583
:1005A00061E070E0CE0101960E94960AFC01808114
:1005B000813351F462E070E0CE0101960E94960A08
:1005C000FC0180818133E9F161E070E0CE010196A8
:1005D0000E94960AFC0120818091040190910501FE
:1005E0006091060170910701213341F5AC018CE661
:1005F00091E00E94DD0368EC70E080E090E00E94F2
:10060000FC06CE010196BBCE62E070E0CE01019601
:100610000E94960AFC0120818091060190910701B9
:10062000213331F466277727681B790BAC019BCF08
:1006300044275527481B590BBC0195CFAB01BC0182
:10064000D6CF60910601709107018CE691E00E947F
:100650003B04D1CF0F930FEF20EA3FE044E060E08E
:1006600071E089E891E00E94C80580E791E00E946E
:100670004D0305E026E04AE06BE08CE691E00E9445
:10068000AD030F91089581E591E090938A018093E5
:10069000890189E891E00C94E90525E0E7E1F1E0C2
:1006A000DC0101900D922A95E1F72AE0ECE1F1E0FE
:1006B000DC01159601900D922A95E1F7FC01108A54
:1006C00017860895FC0127853089253031057CF493
:1006D000E20FF31F6083F901EE0FFF1FE80FF91F10
:1006E000568345832F5F3F4FFC01308B278708954A
:1006F000CF92DF92EF92FF920F931F93CF93DF93EE
:100700008C017B0160E471E00E94290AE701670126
:10071000E12CF12C89910E941306F6012581368186
:100720002817390714F461E301C060E3C8010E948F
:10073000830AFFEFEF1AFF0A82E0C80ED11CE5E042
:10074000EE16F10439F7C801DF91CF911F910F9197
:10075000FF90EF90DF90CF9008950F93CF93DF93AA
:10076000EC01862F688349832A830B8361E00E9412
:10077000910761E089810E94910761E08A810E946E
:10078000910761E08B81DF91CF910F910C949107DC
:10079000CF93DF93EC0160E088810E94CA0760E09C
:1007A00089810E94CA0760E08A810E94CA0760E0CE
:1007B0008B81DF91CF910C94CA07EF92FF920F9338
:1007C0001F93CF93DF93EC017B018A0161157105C3
:1007D00061F44115510509F043C0DF91CF911F919C
:1007E0000F91FF90EF900C94C8031616170644F46F
:1007F00088810E94300660E089810E94CA070BC090
:1008000060E088810E94CA07662777276E197F09F2
:1008100089810E9430061016110674F4B8018A818D
:100820000E94300660E08B81DF91CF911F910F9184
:10083000FF90EF900C94CA0701151105A9F060E034
:100840008A810E94CA0766277727601B710B8B81FC
:10085000DF91CF911F910F91FF90EF900C94300694
:100860001416150664F7DACFDF91CF911F910F911F
:10087000FF90EF900895AB010C94DD036F927F928F
:100880008F929F92AF92BF92CF92DF92EF92FF92A0
:100890000F931F93CF93DF93EC018B018A859B8588
:1008A000892B09F474C0D12C8C85D816E8F4ED2C72
:1008B000F12C8E859F85F701EE0FFF1FE00FF11FD2
:1008C00091838083EA85FB85EE0DFF1D61E08081C9
:1008D0000E94CA07EA85FB85EE0DFF1D61E080815D
:1008E0000E949107D394E0CF8AE090E00E94220713
:1008F000D12C8C85D816A0F4ED2CF12CEA85FB8543
:10090000EE0DFF1D60E080810E949107EA85FB8566
:10091000EE0DFF1D60E080810E94CA07D394E9CFED
:100920000E94D9066B017C010E94D9066C197D09D1
:100930008E099F092E853F854901A12CB12C681590
:1009400079058A059B0518F50E94D9063B016C18AC
:100950007D08912C8C85981638F7A92CB12CAA8586
:10096000BB85AA0DBB1D8C910E940008892B51F4F8
:10097000F501EE0FFF1FE00FF11F808191816816D6
:10098000790610F09394E6CF71826082FBCFDF91FD
:10099000CF911F910F91FF90EF90DF90CF90BF907C
:1009A000AF909F908F907F906F900895EF92FF92FD
:1009B0000F931F93CF93DF931F92CDB7DEB77C01C8
:1009C0008B01DC0113961C921E92129715961C92B5
:1009D0001E92149717961C921E92169719961C92A7
:1009E0001E92189751961C921E925097413120F0FA
:1009F00080E11C968C9302C0FC014487D7011A96B3
:100A00008D919C911B97892B11F030E00FC0F7015D
:100A1000848590E029830E942908D7011B969C9326
:100A20008E931A972981892B81F715C0F701848548
:100A3000381780F4832F90E0F801E80FF91F408108
:100A4000D7011A96ED91FC911B97E80FF91F40838F
:100A50003F5FECCF25870F90DF91CF911F910F91D2
:100A6000FF90EF900895CF93DF93EC018D858F3F3A
:100A700069F061E00E94910760E08D850E94CA07DD
:100A800088EC90E0DF91CF910C942207DF91CF9119
:100A90000895CF93DF93EC018D858F3F69F061E07E
:100AA0000E94910761E08D850E94CA0788EC90E062
:100AB000DF91CF910C942207DF91CF910895DF92BF
:100AC000EF92FF920F931F93CF93DF93CDB7DEB7D3
:100AD000A0970FB6F894DEBF0FBECDBF8C017B018F
:100AE000D42E8FEF840F823020F4C8010E94490574
:100AF00003C0C8010E943305D801ED91FC9101901B
:100B0000F081E02DB701C8010995C8010E943305A5
:100B1000B2E0DB122FC0D801ED91FC910190F08181
:100B2000E02DBE016F5F7F4FC801099540E0F801DD
:100B300084854817F8F4842F90E0880F991FF701F7
:100B4000E80FF91F21E030E02C0F3D1F820F931FAB
:100B5000D8011E962D913C911F97DC018D919C919F
:100B6000281B390B80819181820F931F9183808391
:100B70004F5FDDCFA0960FB6F894DEBF0FBECDBF9E
:100B8000DF91CF911F910F91FF90EF90DF9008952B
:100B9000EF92FF920F93CF93DF93EC017901202F17
:100BA00081E591E0998388831B821A821D821C82D1
:100BB0001F821E82198618861B861A86CE010E9405
:100BC000D604FF86EE86DF91CF910F91FF90EF90D4
:100BD0000895CF93DF93EC018BE491E099838883B0
:100BE0008A859B85009711F00E94C1088C819D81A8
:100BF000009711F00E94C10888859985009711F02F
:100C00000E94C1088A819B81009711F00E94C1084F
:100C10008E819F81009721F0DF91CF910C94C108C4
:100C2000DF91CF9108958E3008F08E50877020911B
:100C3000100190E4299F90011124822B80937C0065
:100C400080917A00806480937A0080917A0086FD9A
:100C5000FCCF809178002091790090E0922B08954C
:100C60001F93CF93DF93182FEB0161E00E94910750
:100C7000209711F460E004C0CF3FD10539F461E062
:100C8000812FDF91CF911F910C94CA07E12FF0E0E3
:100C9000E859FF4FE491E330F9F048F4E130B9F05E
:100CA000E230A1F584B5806284BDC8BD34C0E630B1
:100CB000E9F0E73019F1E43049F580918000806275
:100CC00080938000D0938B00C0938A0024C084B5A9
:100CD000806884BDC7BD1FC08091800080688093FC
:100CE0008000D0938900C093880015C08091B00027
:100CF00080688093B000C093B3000DC08091B000B5
:100D000080628093B000C093B40005C0C038D105A4
:100D10000CF0B5CFAFCFDF91CF911F9108951F9207
:100D20000F920FB60F9211242F933F938F939F939F
:100D3000AF93BF9380919C0190919D01A0919E01E2
:100D4000B0919F0130919B0123E0230F2D3720F4B8
:100D50000196A11DB11D05C026E8230F0296A11D15
:100D6000B11D20939B0180939C0190939D01A093C2
:100D70009E01B0939F018091A0019091A101A0914B
:100D8000A201B091A3010196A11DB11D8093A00104
:100D90009093A101A093A201B093A301BF91AF9141
:100DA0009F918F913F912F910F900FBE0F901F90A9
:100DB00018953FB7F8948091A0019091A101A0915E
:100DC000A201B091A30126B5A89B05C02F3F19F041
:100DD0000196A11DB11D3FBF6627782F892F9A2F3D
:100DE000620F711D811D911D42E0660F771F881FE4
:100DF000991F4A95D1F70895CF92DF92EF92FF9213
:100E0000CF93DF936B017C010E94D906EB01C114E3
:100E1000D104E104F10479F00E94D9066C1B7D0B2A
:100E2000683E7340A0F381E0C81AD108E108F108D8
:100E3000C851DC4FECCFDF91CF91FF90EF90DF9066
:100E4000CF9008950197009739F0880F991F880F68
:100E5000991F02970197F1F70895789484B58260FD
:100E600084BD84B5816084BD85B5826085BD85B54E
:100E7000816085BDEEE6F0E0808181608083E1E8FD
:100E8000F0E0108280818260808380818160808335
:100E9000E0E8F0E0808181608083E1EBF0E0808138
:100EA00084608083E0EBF0E0808181608083EAE70A
:100EB000F0E0808184608083808182608083808193
:100EC000816080838081806880831092C100089552
:100ED000833081F028F4813099F08230A1F00895B8
:100EE0008630A9F08730B9F08430D1F48091800049
:100EF0008F7D03C0809180008F778093800008955C
:100F000084B58F7702C084B58F7D84BD08958091AC
:100F1000B0008F7703C08091B0008F7D8093B000C8
:100F20000895CF93DF9390E0FC01E458FF4F2491A4
:100F3000FC01E057FF4F8491882349F190E0880F2E
:100F4000991FFC01E854FF4FA591B49182559F4F22
:100F5000FC01C591D4919FB7611108C0F8948C91A0
:100F6000209582238C93888182230AC0623051F4B9
:100F7000F8948C91322F309583238C938881822B27
:100F8000888304C0F8948C91822B8C939FBFDF914F
:100F9000CF9108950F931F93CF93DF931F92CDB7F7
:100FA000DEB7282F30E0F901E859FF4F8491F901AD
:100FB000E458FF4F1491F901E057FF4F04910023CB
:100FC000C9F0882321F069830E9468076981E02FB6
:100FD000F0E0EE0FFF1FE255FF4FA591B4919FB7D0
:100FE000F8948C91611103C01095812301C0812B6D
:100FF0008C939FBF0F90DF91CF911F910F91089518
:10100000CF93DF93282F30E0F901E859FF4F849107
:10101000F901E458FF4FD491F901E057FF4FC49113
:10102000CC2391F081110E946807EC2FF0E0EE0FC5
:10103000FF1FEC55FF4FA591B4912C912D2381E01A
:1010400090E021F480E002C080E090E0DF91CF9159
:101050000895CF93DF938230910510F482E090E001
:10106000E0915102F091520220E030E0A0E0B0E0C7
:10107000309739F14081518148175907B8F0481726
:10108000590771F482819381109729F013969C93EC
:101090008E9312972CC0909352028093510227C0D6
:1010A0002115310531F04217530718F0A901DB0172
:1010B00001C0EF019A01BD01DF010280F381E02D43
:1010C000D7CF21153105F9F0281B390B2430310514
:1010D00080F48A819B816115710521F0FB01938366
:1010E000828304C09093520280935102FE01329693
:1010F00044C0FE01E20FF31F819391932250310906
:10110000398328833AC020914F0230915002232B1B
:1011100041F4209113013091140130935002209337
:101120004F0220911101309112012115310541F436
:101130002DB73EB74091150150911601241B350B78
:10114000E0914F02F0915002E217F307A0F42E1B3A
:101150003F0B2817390778F0AC014E5F5F4F24171B
:10116000350748F04E0F5F1F5093500240934F02D7
:101170008193919302C0E0E0F0E0CF01DF91CF9145
:101180000895CF93DF93009709F487C0FC0132974D
:1011900013821282C0915102D0915202209781F4A1
:1011A00020813181280F391F80914F029091500288
:1011B0008217930779F5F0935002E0934F026DC0C8
:1011C000DE0120E030E0AE17BF0750F412964D91DB
:1011D0005C9113979D014115510509F1DA01F3CF97
:1011E000B383A28340815181840F951F8A179B0787
:1011F00071F48D919C911197840F951F02969183A4
:10120000808312968D919C911397938382832115ED
:10121000310529F4F0935202E09351023EC0D90106
:101220001396FC93EE9312974D915D91A40FB51F09
:10123000EA17FB0779F480819181840F951F02964C
:10124000D90111969C938E938281938113969C93DE
:101250008E931297E0E0F0E08A819B81009719F06D
:10126000FE01EC01F9CFCE01029628813981820F6F
:10127000931F20914F02309150022817390769F4CB
:10128000309729F4109252021092510202C0138238
:101290001282D0935002C0934F02DF91CF910895F4
:1012A000CF92DF92EF92FF920F931F93CF93DF9332
:1012B0006C017A01EB01E60EF71E00E010E0CE159E
:1012C000DF0561F06991D601ED91FC910190F0810B
:1012D000E02DC6010995080F191FF1CFC801DF9154
:1012E000CF911F910F91FF90EF90DF90CF900895D5
:1012F0006115710581F0DB010D900020E9F7AD016A
:1013000041505109461B570BDC01ED91FC910280C5
:10131000F381E02D099480E090E00895DC01ED91E7
:10132000FC910190F081E02D09940F931F93CF93CE
:10133000DF93EC016DE00E948E098C016AE0CE0122
:101340000E948E09800F911FDF91CF911F910F9105
:1013500008950F931F93CF93DF93EC010E947809B8
:101360008C01CE010E949509800F911FDF91CF91D2
:101370001F910F910895FC01808191810C94C10807
:10138000CF93DF93EC0188819981009711F00E943F
:10139000C108198218821D821C821B821A82DF9169
:1013A000CF9108950F931F93CF93DF93EC018B019F
:1013B0006F5F7F4F888199810E94A30C009731F065
:1013C000998388831B830A8381E001C080E0DF91D9
:1013D000CF911F910F910895CF93DF93EC018881F6
:1013E0009981892B29F08A819B818617970760F460
:1013F000CE010E94D209882341F08C819D81892BE6
:1014000019F4E881F981108281E0DF91CF9108958C
:10141000EF92FF920F931F93CF93DF93EC017B0129
:101420008A01BA010E94EC09811104C0CE010E9418
:10143000C00907C01D830C83B701888199810E9470
:10144000BD0DCE01DF91CF911F910F91FF90EF90D5
:101450000895FC0111821082138212821582148277
:1014600016826115710559F0FB0101900020E9F722
:10147000AF0141505109461B570B0C94080A0895BF
:10148000CF93DF93EC01FB018617970761F0608132
:1014900071816115710529F0448155810E94080A06
:1014A00002C00E94C009CE01DF91CF910895EF9252
:1014B000FF920F931F93CF93DF93EC017B010C817D
:1014C0001D816115710511F480E016C041155105AB
:1014D00091F0040F151FB8010E94EC098823A1F3B5
:1014E000288139818C819D81B701820F931F0E94D1
:1014F000BD0D1D830C8381E0DF91CF911F910F9172
:10150000FF90EF900895CF93DF9300D0CDB7DEB773
:1015100069831A8241E050E0BE016F5F7F4F0E94F5
:10152000570A0F900F90DF91CF910895FC018481AD
:1015300095816817790720F480819181009729F4BB
:101540001092A40184EA91E00895860F971F0895F0
:1015500008950E942D070E948E00C8E8DBE00E94DB
:101560004B012097E1F30E94880BF9CFFC01248501
:101570003585F901E05CFF4F80819181F901EE5BD7
:10158000FF4F20813181821B930B8F739927089520
:10159000FC0184859585FC01E05CFF4F4081518111
:1015A000FC01EE5BFF4F208131814217530741F070
:1015B0000190F081E02DE80FF91F808190E00895FF
:1015C0008FEF9FEF0895FC0184859585FC01E05C19
:1015D000FF4F40815181FC01EE5BFF4F2081318143
:1015E0004217530779F0A081B181A80FB91F8C91E0
:1015F000208131812F5F3F4F2F7333273183208329
:1016000090E008958FEF9FEF0895FC0181A188235A
:1016100029F0A489B5898C9186FFFBCF11A208958A
:10162000CF93DF93FC0126853785D901A05CBF4F9E
:101630008D919C91119701968F739927E901CE5B4B
:10164000DF4F4881598184179507D9F30D90BC91DC
:10165000A02DA20FB31F6C93A685B785A05CBF4FCA
:1016600011969C938E93A689B7892C9181E090E086
:10167000078C02C0880F991F0A94E2F7282B2C933D
:1016800081E081A30488F589E02D808180648083D6
:1016900081E090E0DF91CF91089508951F920F921D
:1016A0000FB60F9211242F933F934F938F939F93D5
:1016B000EF93FF938091C00082FD1CC04091C60053
:1016C00080914B0290914C0201968F739927209143
:1016D0004D0230914E028217930771F0E0914B0258
:1016E000F0914C02E55FFD4F408390934C02809354
:1016F0004B0202C08091C600FF91EF919F918F91A4
:101700004F913F912F910F900FBE0F901F90189502
:1017100085EA91E00E94B60A892B11F00C944D0BDA
:1017200008951F920F920FB60F9211242F933F939B
:101730008F939F93EF93FF932091070230910802BC
:101740008091090290910A022817390731F480919B
:10175000C1008F7D8093C10014C0E0910902F09117
:101760000A02E953FE4F20818091090290910A02FA
:1017700001968F73992790930A0280930902209310
:10178000C600FF91EF919F918F913F912F910F9004
:101790000FBE0F901F901895CF92DF92EF92FF929D
:1017A000CF93DF93EC016A017B01411581EE58076D
:1017B00061057105F9F0EC89FD8981E090E008A0F0
:1017C00002C0880F991F0A94E2F7808360E079E0F5
:1017D0008DE390E0A70196010E948C0D2150310904
:1017E000410951095695479537952795211580E16F
:1017F000380798F0EC89FD89108260E874E88EE182
:1018000090E0A70196010E948C0D215031094109F9
:1018100051095695479537952795E889F989308379
:10182000EA89FB89208319A2EE89FF89408181E042
:1018300090E09C010C8C02C0220F331F0A94E2F747
:10184000422B4083EE89FF8940819C010D8C02C0B0
:10185000220F331F0A94E2F7422B4083EE89FF895F
:1018600040819C010E8C02C0220F331F0A94E2F7C4
:10187000422B4083EE89FF8920810F8C02C0880FA4
:10188000991F0A94E2F7809582238083DF91CF919C
:10189000FF90EF90DF90CF9008951092A8011092E2
:1018A000A70188EE93E0A0E0B0E08093A9019093B7
:1018B000AA01A093AB01B093AC0187E591E09093AE
:1018C000A6018093A5018BE092E09093B2018093F2
:1018D000B10187EC91E09093B4018093B30185EC62
:1018E00090E09093B6018093B50184EC90E09093E2
:1018F000B8018093B70180EC90E09093BA01809397
:10190000B90181EC90E09093BC018093BB0182EC23
:1019100090E09093BE018093BD0186EC90E090939F
:10192000C0018093BF0184E08093C10183E0809374
:10193000C20187E08093C30185E08093C40181E008
:101940008093C50108956F927F928F929F92AF927C
:10195000BF92CF92DF92EF92FF920F931F93CF939C
:10196000DF93EC01CB01209781F4DF91CF911F91A0
:101970000F91FF90EF90DF90CF90BF90AF909F902E
:101980008F907F906F900C942908FE01E60FF71F4F
:101990009E0122503109E217F30708F4ACC0D901C7
:1019A0000D911C91119706171707B8F00530110516
:1019B00008F49FC0A801445051094617570708F47E
:1019C00098C002501109061B170B019311936D93D8
:1019D0007C93CF010E94C1088CC05B01A01AB10AA0
:1019E0004E01800E911EA0915102B0915202612CC5
:1019F000712C60E070E0109709F449C0A815B90592
:101A0000C9F5ED90FC901197670142E0C40ED11C1E
:101A1000CA14DB0478F147018A189B08640142E08C
:101A2000C40ED11C1296BC9012971396AC91B5E0DF
:101A3000CB16D10440F0B282A38391828082D90177
:101A40008D939C9309C00E5F1F4F0E0D1F1DF90152
:101A500011830083EB2DFA2F6115710531F0DB0145
:101A60001396FC93EE93129744C0F0935202E093C6
:101A700051023FC06D917C9111976616770608F46C
:101A80003B01BD0112960D90BC91A02DB4CF609189
:101A90004F027091500268157905E9F468167906CD
:101AA000D0F440911101509112014115510541F4BA
:101AB0004DB75EB76091150170911601461B570B2B
:101AC000E417F507C0F4F0935002E0934F02F901D8
:101AD000918380830EC00E9429087C01009759F0F1
:101AE000A801BE010E94B40DCE010E94C108C70129
:101AF00004C0CE0102C080E090E0DF91CF911F9141
:101B00000F91FF90EF90DF90CF90BF90AF909F909C
:101B10008F907F906F900895A1E21A2EAA1BBB1B95
:101B2000FD010DC0AA1FBB1FEE1FFF1FA217B307A9
:101B3000E407F50720F0A21BB30BE40BF50B661FBF
:101B4000771F881F991F1A9469F760957095809583
:101B500090959B01AC01BD01CF010895EE0FFF1FD1
:101B60000590F491E02D0994FB01DC0102C0019085
:101B70000D9241505040D8F70895FB01DC010190CF
:101B80000D920020E1F7089510E0C6ECD0E004C00B
:101B9000FE010E94B00D2296C83CD107C9F7F89407
:021BA000FFCF75
:101BA20003020904C800FF00E803E803200320033E
:101BB20001000053028000FFFFFFFFFFFFFFFFFF56
:101BC200FFFFFFFFFFFF5374617274696E6720535A
:101BD200756D6F205265706F7274696E672E2E2E4E
:101BE2000030303030300000000000A80A00000051
:101BF200003E0400000000100B5009B60AE30AC8B8
:041C02000A050B00C4
:00000001FF
