:100000000C9464000C948C000C948C000C948C0068
:100010000C948C000C948C000C948C000C948C0030
:100020000C948C000C948C000C948C000C948C0020
:100030000C948C000C948C000C948C000C948C0010
:100040000C9407070C948C000C94280A0C946B0AEF
:100050000C948C000C948C000C948C000C948C00F0
:100060000C948C000C948C0000000007000201002E
:100070000003040600000000000000000102040864
:100080001020408001020408102001020408102002
:10009000040404040404040402020202020203032E
:1000A00003030303000000002300260029000000D2
:1000B0000000250028002B0000000000240027007D
:1000C0002A005D03270B760311241FBECFEFD8E073
:1000D000DEBFCDBF11E0A0E0B1E0EAEDFBE102C080
:1000E00005900D92AE35B107D9F712E0AEE5B1E05B
:1000F00001C01D92AD34B107E1F710E0C6ECD0E0CD
:1001000004C02297FE010E94CC0DC23CD107C9F762
:100110000E9483090C94E00D0C94000086E691E0A7
:100120000E949B034CED50E063E08AE691E00E9460
:10013000260446E950E062E08AE691E00E94260447
:1001400046E950E061E08AE691E00E94260446E933
:1001500050E060E08AE691E00E9426044CED50E019
:1001600067E08AE691E00E94260440E855E260E0FC
:1001700070E08EE991E00E94A60A66E271E08EE9E5
:1001800091E00E94AD0C10926301109262011092F6
:1001900065011092640181E080935E01089541E061
:1001A0006BE771E083E891E00C9492050E94CF0028
:1001B000209181013091820180910E0190910F0177
:1001C0002817390720F120917F013091800180911B
:1001D0000C0190910D0128173907C8F020917D017D
:1001E00030917E0180910A0190910B012817390707
:1001F00070F081E040917B0150917C0120910801D9
:10020000309109014217530718F080E0089581E00A
:100210000895EF92FF920F931F93CF93DF93EC011A
:100220000E94CF0060E471E0CE010E94EC0B0BE76E
:1002300011E088E0E82E81E0F82EF801219131915B
:100240008F01F701819191917F012817390710F4EF
:1002500061E301C060E3CE010E942F0CF1E003389E
:100260001F0759F7CE01DF91CF911F910F91FF909A
:10027000EF900895CF93DF93CDB7DEB727970FB6F2
:10028000F894DEBF0FBECDBF0E94D600882321F0B8
:100290000E94D60081113DC06AE671E0CE01019650
:1002A0000E943C0460E070E0CE0101960E94420C86
:1002B000FC018081813319F484E090E025C064E082
:1002C00070E0CE0101960E94420CFC0180818133D6
:1002D00019F485E090E018C061E070E0CE0101966D
:1002E0000E94420CFC018081813309F0A3C162E0CD
:1002F00070E0CE0101960E94420CFC0180818133A6
:1003000009F098C186E090E09093630180936201C8
:1003100030C0CE0101960E94090163E070E0CE0179
:1003200001960E94420CFC018081813309F4F2C0E5
:1003300062E070E0CE0101960E94420CFC018081D7
:10034000813309F4E7C061E070E0CE0101960E94BC
:10035000420CFC018081813309F414C160E070E03B
:10036000CE0101960E94420CFC018081813309F488
:1003700009C1CE0101960E947E0B8091620190918D
:1003800063010097C9F580915E016091060170914B
:100390000701882399F044275527461B570B86E60B
:1003A00091E00E94B00380916001909161018536D7
:1003B00091050CF491C010925E018EC080915F0196
:1003C000882369F0CB0177FD0396959587959595E0
:1003D0008795919581959109AB01BC012AC0AB012C
:1003E00077FF02C04D5F5F4F5595479555954795EF
:1003F0005195419551091DC08130910549F4609195
:1004000006017091070186E691E00E940E0464C027
:100410008230910599F481E080935F01409106015B
:1004200050910701609104017091050171956195EA
:10043000710986E691E00E94B0034EC083309105B9
:1004400051F410925F0140910401509105015195C2
:100450004195510935C08430910561F481E0809364
:100460005F01409106015091070166277727641BC1
:10047000750BDFCF8530910559F410925F016091C3
:1004800006017091070144275527461B570BD1CF12
:100490008630910561F481E080935F01409106010F
:1004A000509107016091040170910501C2CF87301E
:1004B000910559F410925F0140910401509105019A
:1004C0006091060170910701B4CF8336910521F444
:1004D00086E691E00E949B03809162019091630106
:1004E00020916401309165018217930711F01092F9
:1004F0005E011092610110926001909365018093FA
:10050000640127960FB6F894DEBF0FBECDBFDF9112
:10051000CF910895609104017091050171956195E5
:10052000710986E691E00E940E0460E971E080E0C6
:1005300090E00E94740763E070E0CE0101960E9493
:10054000420CFC018081813309F04EC062E070E012
:10055000CE0101960E94420CFC018081813309F09A
:1005600043C0609106017091070144275527461B3F
:10057000570B86E691E00E94B0036CE271E080E0E8
:1005800090E02FC061E070E0CE0101960E94420C25
:10059000FC018081813351F462E070E0CE0101966C
:1005A0000E94420CFC0180818133D9F161E070E04E
:1005B000CE0101960E94420CFC0120818091040131
:1005C000909105016091060170910701213331F589
:1005D000AC0186E691E00E94B00368EC70E080E038
:1005E00090E00E947407C5CE62E070E0CE010196F3
:1005F0000E94420CFC01208180910601909107012C
:10060000213331F466277727681B790BAC01B1CF12
:1006100044275527481B590BBC01ABCFAB01BC018C
:10062000D8CF609106017091070186E691E00E94A3
:100630000E04D3CF61E070E0CE0101960E94420C1F
:10064000FC018081813319F482E090E05DCE63E0AB
:1006500070E0CE0101960E94420CFC018081813342
:1006600069F462E070E0CE0101960E94420CFC0148
:100670008081813319F487E090E046CE63E070E03A
:10068000CE0101960E94420CFC018081813319F455
:1006900083E090E039CE62E070E0CE0101960E94E6
:1006A000420CFC018081813319F481E090E02CCE72
:1006B00010926301109262015CCE0F930FEF20EA5B
:1006C0003FE044E060E071E083E891E00E94FB05D8
:1006D0008AE691E00E94110405E026E04AE06BE022
:1006E00086E691E00E9480030F9108958BE491E0EB
:1006F000909384018093830183E891E00C941C061D
:100700000F93CF93DF93EC01862F688349832A836D
:100710000B8361E00E946F0661E089810E946F0691
:1007200061E08A810E946F0661E08B81DF91CF9149
:100730000F910C946F06CF93DF93EC0160E08881FA
:100740000E94A80660E089810E94A80660E08A8174
:100750000E94A80660E08B81DF91CF910C94A806DF
:10076000EF92FF920F931F93CF93DF93EC017B01E6
:100770008A016115710561F44115510509F043C005
:10078000DF91CF911F910F91FF90EF900C949B03FD
:100790001616170644F488810E94240960E08981B6
:1007A0000E94A8060BC060E088810E94A806662708
:1007B00077276E197F0989810E9424091016110676
:1007C00074F4B8018A810E94240960E08B81DF9172
:1007D000CF911F910F91FF90EF900C94A8060115F7
:1007E0001105A9F060E08A810E94A8066627772794
:1007F000601B710B8B81DF91CF911F910F91FF9047
:10080000EF900C9424091416150664F7DACFDF91E3
:10081000CF911F910F91FF90EF900895AB010C9431
:10082000B00325E0E7E1F1E0DC0101900D922A95AB
:10083000E1F72AE0ECE1F1E0DC01159601900D9280
:100840002A95E1F7FC01108A17860895FC01278597
:100850003089253031057CF4E20FF31F6083F90104
:10086000EE0FFF1FE80FF91F568345832F5F3F4FA1
:10087000FC01308B27870895CF92DF92EF92FF9291
:100880000F931F93CF93DF938C017B0160E471E0A2
:100890000E94EC0BE7016701E12CF12C89910E9489
:1008A0000709F601258136812817390714F461E319
:1008B00001C060E3C8010E942F0CFFEFEF1AFF0A8E
:1008C00082E0C80ED11CE5E0EE16F10439F7C8014C
:1008D000DF91CF911F910F91FF90EF90DF90CF901C
:1008E00008956F927F928F929F92AF92BF92CF9214
:1008F000DF92EF92FF920F931F93CF93DF93EC0160
:100900008B018A859B85892B09F474C0D12C8C8539
:10091000D816E8F4ED2CF12C8E859F85F701EE0FAB
:10092000FF1FE00FF11F91838083EA85FB85EE0DA9
:10093000FF1D61E080810E94A806EA85FB85EE0D1F
:10094000FF1D61E080810E946F06D394E0CF8AE0B2
:1009500090E00E949A07D12C8C85D816A0F4ED2C3B
:10096000F12CEA85FB85EE0DFF1D60E080810E9481
:100970006F06EA85FB85EE0DFF1D60E080810E9419
:10098000A806D394E9CF0E9451076B017C010E9415
:1009900051076C197D098E099F092E853F854901F4
:1009A000A12CB12C681579058A059B0518F50E94C4
:1009B00051073B016C187D08912C8C85981638F7EF
:1009C000A92CB12CAA85BB85AA0DBB1D8C910E94B8
:1009D000DE06892B51F4F501EE0FFF1FE00FF11F2A
:1009E000808191816816790610F09394E6CF718228
:1009F0006082FBCFDF91CF911F910F91FF90EF901D
:100A0000DF90CF90BF90AF909F908F907F906F902E
:100A10000895EF92FF920F931F93CF93DF931F924E
:100A2000CDB7DEB77C018B01DC0113961C921E92C0
:100A3000129715961C921E92149717961C921E924E
:100A4000169719961C921E92189751961C921E92F8
:100A50005097413120F080E11C968C9302C0FC013C
:100A60004487D7011A968D919C911B97892B11F081
:100A700030E00FC0F701848590E029830E94E007F1
:100A8000D7011B969C938E931A972981892B81F706
:100A900015C0F7018485381780F4832F90E0F801A2
:100AA000E80FF91F4081D7011A96ED91FC911B9731
:100AB000E80FF91F40833F5FECCF25870F90DF9150
:100AC000CF911F910F91FF90EF900895CF93DF93F7
:100AD000EC018D858F3F69F061E00E946F0660E058
:100AE0008D850E94A80688EC90E0DF91CF910C9450
:100AF0009A07DF91CF910895CF93DF93EC018D8515
:100B00008F3F69F061E00E946F0661E08D850E9471
:100B1000A80688EC90E0DF91CF910C949A07DF91C2
:100B2000CF910895DF92EF92FF920F931F93CF938F
:100B3000DF93CDB7DEB7A0970FB6F894DEBF0FBE38
:100B4000CDBF8C017B01D42E8FEF840F823020F437
:100B5000C8010E947C0503C0C8010E946605D80137
:100B6000ED91FC910190F081E02DB701C80109954C
:100B7000C8010E946605B2E0DB122FC0D801ED91DA
:100B8000FC910190F081E02DBE016F5F7F4FC801A5
:100B9000099540E0F80184854817F8F4842F90E027
:100BA000880F991FF701E80FF91F21E030E02C0FA3
:100BB0003D1F820F931FD8011E962D913C911F97C8
:100BC000DC018D919C91281B390B80819181820FD2
:100BD000931F918380834F5FDDCFA0960FB6F8946B
:100BE000DEBF0FBECDBFDF91CF911F910F91FF9060
:100BF000EF90DF900895EF92FF920F93CF93DF93E2
:100C0000EC017901202F8BE491E0998388831B828A
:100C10001A821D821C821F821E82198618861B86DC
:100C20001A86CE010E940905FF86EE86DF91CF91DC
:100C30000F91FF90EF900895CF93DF93EC0185E43F
:100C400091E0998388838A859B85009711F00E94A3
:100C500078088C819D81009711F00E947808888522
:100C60009985009711F00E9478088A819B810097EE
:100C700011F00E9478088E819F81009721F0DF910A
:100C8000CF910C947808DF91CF910895833081F053
:100C900028F4813099F08230A1F008958630A9F0CF
:100CA0008730B9F08430D1F4809180008F7D03C00B
:100CB000809180008F7780938000089584B58F772E
:100CC00002C084B58F7D84BD08958091B0008F7778
:100CD00003C08091B0008F7D8093B0000895CF93C2
:100CE000DF9390E0FC01E458FF4F2491FC01E057B2
:100CF000FF4F8491882349F190E0880F991FFC01F0
:100D0000E854FF4FA591B49182559F4FFC01C591C6
:100D1000D4919FB7611108C0F8948C9120958223DB
:100D20008C93888182230AC0623051F4F8948C91AC
:100D3000322F309583238C938881822B888304C043
:100D4000F8948C91822B8C939FBFDF91CF91089563
:100D50000F931F93CF93DF931F92CDB7DEB7282F4A
:100D600030E0F901E859FF4F8491F901E458FF4F51
:100D70001491F901E057FF4F04910023C9F0882333
:100D800021F069830E9446066981E02FF0E0EE0FB2
:100D9000FF1FE255FF4FA591B4919FB7F8948C9136
:100DA000611103C01095812301C0812B8C939FBFDB
:100DB0000F90DF91CF911F910F910895CF93DF9303
:100DC000282F30E0F901E859FF4F8491F901E458E8
:100DD000FF4FD491F901E057FF4FC491CC2391F01C
:100DE00081110E944606EC2FF0E0EE0FFF1FEC553C
:100DF000FF4FA591B4912C912D2381E090E021F437
:100E000080E002C080E090E0DF91CF9108951F92D2
:100E10000F920FB60F9211242F933F938F939F93AE
:100E2000AF93BF938091960190919701A091980103
:100E3000B09199013091950123E0230F2D3720F4D3
:100E40000196A11DB11D05C026E8230F0296A11D24
:100E5000B11D209395018093960190939701A093E3
:100E60009801B093990180919A0190919B01A09172
:100E70009C01B0919D010196A11DB11D80939A0125
:100E800090939B01A0939C01B0939D01BF91AF9162
:100E90009F918F913F912F910F900FBE0F901F90B8
:100EA00018953FB7F89480919A0190919B01A09179
:100EB0009C01B0919D0126B5A89B05C02F3F19F05C
:100EC0000196A11DB11D3FBF6627782F892F9A2F4C
:100ED000620F711D811D911D42E0660F771F881FF3
:100EE000991F4A95D1F70895CF92DF92EF92FF9222
:100EF000CF93DF936B017C010E945107EB01C1147A
:100F0000D104E104F10479F00E9451076C1B7D0BC0
:100F1000683E7340A0F381E0C81AD108E108F108E7
:100F2000C851DC4FECCFDF91CF91FF90EF90DF9075
:100F3000CF9008950197009739F0880F991F880F77
:100F4000991F02970197F1F70895789484B582600C
:100F500084BD84B5816084BD85B5826085BD85B55D
:100F6000816085BDEEE6F0E0808181608083E1E80C
:100F7000F0E0108280818260808380818160808344
:100F8000E0E8F0E0808181608083E1EBF0E0808147
:100F900084608083E0EBF0E0808181608083EAE719
:100FA000F0E08081846080838081826080838081A2
:100FB000816080838081806880831092C100089561
:100FC000CF93DF938230910510F482E090E0E091BE
:100FD0004B02F0914C0220E030E0A0E0B0E030970E
:100FE00039F14081518148175907B8F0481759071E
:100FF00071F482819381109729F013969C938E93BC
:1010000012972CC090934C0280934B0227C021155D
:10101000310531F04217530718F0A901DB0101C077
:10102000EF019A01BD01DF010280F381E02DD7CFEE
:1010300021153105F9F0281B390B2430310580F4D6
:101040008A819B816115710521F0FB019383828365
:1010500004C090934C0280934B02FE01329644C030
:10106000FE01E20FF31F81939193225031093983DE
:1010700028833AC02091490230914A02232B41F43F
:10108000209112013091130130934A0220934902BA
:1010900020911001309111012115310541F42DB736
:1010A0003EB74091140150911501241B350BE0917E
:1010B0004902F0914A02E217F307A0F42E1B3F0BFE
:1010C0002817390778F0AC014E5F5F4F24173507BA
:1010D00048F04E0F5F1F50934A024093490281939C
:1010E000919302C0E0E0F0E0CF01DF91CF9108954D
:1010F000CF93DF93009709F487C0FC0132971382E6
:101100001282C0914B02D0914C02209781F4208131
:101110003181280F391F8091490290914A0282172C
:10112000930779F5F0934A02E09349026DC0DE011E
:1011300020E030E0AE17BF0750F412964D915C915D
:1011400013979D014115510509F1DA01F3CFB383DE
:10115000A28340815181840F951F8A179B0771F4E8
:101160008D919C911197840F951F02969183808396
:1011700012968D919C91139793838283211531054B
:1011800029F4F0934C02E0934B023EC0D901139630
:10119000FC93EE9312974D915D91A40FB51FEA1742
:1011A000FB0779F480819181840F951F0296D90104
:1011B00011969C938E938281938113969C938E9328
:1011C0001297E0E0F0E08A819B81009719F0FE0120
:1011D000EC01F9CFCE01029628813981820F931F4D
:1011E0002091490230914A022817390769F4309753
:1011F00029F410924C0210924B0202C01382128208
:10120000D0934A02C0934902DF91CF9108958E3066
:1012100008F08E5087702091160190E4299F90016C
:101220001124822B80937C0080917A0080648093CB
:101230007A0080917A0086FDFCCF80917800209121
:10124000790090E0922B08951F93CF93DF93182F8E
:10125000EB0161E00E946F06209711F460E004C08A
:10126000CF3FD10539F461E0812FDF91CF911F91FC
:101270000C94A806E12FF0E0E859FF4FE491E33029
:10128000F9F048F4E130B9F0E230A1F584B58062BC
:1012900084BDC8BD34C0E630E9F0E73019F1E43070
:1012A00049F580918000806280938000D0938B000C
:1012B000C0938A0024C084B5806884BDC7BD1FC0A8
:1012C00080918000806880938000D0938900C093D3
:1012D000880015C08091B00080688093B000C093F2
:1012E000B3000DC08091B00080628093B000C093C5
:1012F000B40005C0C038D1050CF0B5CFAFCFDF9139
:10130000CF911F9108950E94A5070E948E00C2E60A
:10131000DAE00E943A012097E1F30E94620AF9CFD5
:10132000FC0124853585F901E05CFF4F80819181C6
:10133000F901EE5BFF4F20813181821B930B8F738C
:1013400099270895FC0184859585FC01E05CFF4F99
:1013500040815181FC01EE5BFF4F208131814217BA
:10136000530741F00190F081E02DE80FF91F8081D3
:1013700090E008958FEF9FEF0895FC018485958597
:10138000FC01E05CFF4F40815181FC01EE5BFF4FAF
:10139000208131814217530779F0A081B181A80FD4
:1013A000B91F8C91208131812F5F3F4F2F733327DD
:1013B0003183208390E008958FEF9FEF0895FC0123
:1013C00081A1882329F0A489B5898C9186FFFBCF60
:1013D00011A20895CF93DF93FC0126853785D901AB
:1013E000A05CBF4F8D919C91119701968F739927A7
:1013F000E901CE5BDF4F4881598184179507D9F306
:101400000D90BC91A02DA20FB31F6C93A685B7853C
:10141000A05CBF4F11969C938E93A689B7892C919F
:1014200081E090E0078C02C0880F991F0A94E2F7D0
:10143000282B2C9381E081A30488F589E02D8081FD
:101440008064808381E090E0DF91CF9108950895DA
:101450001F920F920FB60F9211242F933F934F9329
:101460008F939F93EF93FF938091C00082FD1CC0E8
:101470004091C600809144029091450201968F737D
:10148000992720914602309147028217930771F005
:10149000E0914402F0914502EC5FFD4F4083909350
:1014A00045028093440202C08091C600FF91EF91F3
:1014B0009F918F914F913F912F910F900FBE0F9061
:1014C0001F9018958EE991E00E949009892B11F0E8
:1014D0000C94270A08951F920F920FB60F921124B1
:1014E0002F933F938F939F93EF93FF93209100024D
:1014F000309101028091020290910302281739076E
:1015000031F48091C1008F7D8093C10014C0E091BF
:101510000202F0910302E054FE4F2081809102020A
:101520009091030201968F73992790930302809301
:1015300002022093C600FF91EF919F918F913F91FE
:101540002F910F900FBE0F901F901895CF92DF92A2
:10155000EF92FF92CF93DF93EC016A017B0141157B
:1015600081EE580761057105F9F0EC89FD8981E08C
:1015700090E008A002C0880F991F0A94E2F78083C8
:1015800060E079E08DE390E0A70196010E94A80D4C
:1015900021503109410951095695479537952795AD
:1015A000211580E1380798F0EC89FD89108260E808
:1015B00074E88EE190E0A70196010E94A80D2150E9
:1015C0003109410951095695479537952795E8897D
:1015D000F9893083EA89FB89208319A2EE89FF8982
:1015E000408181E090E09C010C8C02C0220F331FEF
:1015F0000A94E2F7422B4083EE89FF8940819C01E7
:101600000D8C02C0220F331F0A94E2F7422B408355
:10161000EE89FF8940819C010E8C02C0220F331F8E
:101620000A94E2F7422B4083EE89FF8920810F8CD8
:1016300002C0880F991F0A94E2F780958223808365
:10164000DF91CF91FF90EF90DF90CF9008951092AF
:10165000A1011092A00188EE93E0A0E0B0E0809399
:10166000A2019093A301A093A401B093A50181E5E9
:1016700091E090939F0180939E0184E092E090938B
:10168000AB018093AA0180EC91E09093AD0180932F
:10169000AC0185EC90E09093AF018093AE0184ECB7
:1016A00090E09093B1018093B00180EC90E0909332
:1016B000B3018093B20181EC90E09093B5018093E7
:1016C000B40182EC90E09093B7018093B60186EC70
:1016D00090E09093B9018093B80184E08093BA01BF
:1016E00083E08093BB0187E08093BC0185E0809319
:1016F000BD0181E08093BE0108950895FC018081C1
:1017000091810C947808CF93DF93EC0188819981C3
:10171000009711F00E947808198218821D821C829D
:101720001B821A82DF91CF9108950F931F93CF935D
:10173000DF93EC018B016F5F7F4F888199810E945D
:10174000BF0C009731F0998388831B830A8381E063
:1017500001C080E0DF91CF911F910F910895CF9349
:10176000DF93EC0188819981892B29F08A819B8103
:101770008617970760F4CE010E94950B882341F0ED
:101780008C819D81892B19F4E881F981108281E097
:10179000DF91CF910895EF92FF920F931F93CF9314
:1017A000DF93EC017B018A01BA010E94AF0B81112A
:1017B00004C0CE010E94830B07C01D830C83B701B8
:1017C000888199810E94D90DCE01DF91CF911F911F
:1017D0000F91FF90EF900895FC0111821082138207
:1017E00012821582148216826115710559F0FB016F
:1017F00001900020E9F7AF0141505109461B570BFA
:101800000C94CB0B0895EF92FF920F931F93CF93FD
:10181000DF93EC017B010C811D816115710511F4D1
:1018200080E016C04115510591F0040F151FB80155
:101830000E94AF0B8823A1F3288139818C819D817F
:10184000B701820F931F0E94D90D1D830C8381E085
:10185000DF91CF911F910F91FF90EF900895CF935B
:10186000DF9300D0CDB7DEB769831A8241E050E044
:10187000BE016F5F7F4F0E94030C0F900F90DF91AE
:10188000CF910895FC01848195816817790720F430
:1018900080819181009729F41092480288E492E0B7
:1018A0000895860F971F0895CF92DF92EF92FF92CF
:1018B0000F931F93CF93DF936C017A01EB01E60E38
:1018C000F71E00E010E0CE15DF0561F06991D6014A
:1018D000ED91FC910190F081E02DC6010995080F72
:1018E000191FF1CFC801DF91CF911F910F91FF9088
:1018F000EF90DF90CF9008956115710581F0DB01C5
:101900000D900020E9F7AD0141505109461B570BDE
:10191000DC01ED91FC910280F381E02D099480E0DF
:1019200090E00895DC01ED91FC910190F081E02DB3
:1019300009940F931F93CF93DF93EC016DE00E9406
:10194000920C8C016AE0CE010E94920C800F911FD4
:10195000DF91CF911F910F9108950F931F93CF9314
:10196000DF93EC010E947C0C8C01CE010E94990C4B
:10197000800F911FDF91CF911F910F9108956F926A
:101980007F928F929F92AF92BF92CF92DF92EF920F
:10199000FF920F931F93CF93DF93EC01CB0120971E
:1019A00081F4DF91CF911F910F91FF90EF90DF9025
:1019B000CF90BF90AF909F908F907F906F900C943E
:1019C000E007FE01E60FF71F9E0122503109E217E2
:1019D000F30708F4ACC0D9010D911C9111970617BB
:1019E0001707B8F00530110508F49FC0A80144504E
:1019F00051094617570708F498C002501109061BF1
:101A0000170B019311936D937C93CF010E9478087B
:101A10008CC05B01A01AB10A4E01800E911EA091EC
:101A20004B02B0914C02612C712C60E070E0109779
:101A300009F449C0A815B905C9F5ED90FC901197B6
:101A4000670142E0C40ED11CCA14DB0478F14701DF
:101A50008A189B08640142E0C40ED11C1296BC9007
:101A600012971396AC91B5E0CB16D10440F0B28238
:101A7000A38391828082D9018D939C9309C00E5FCC
:101A80001F4F0E0D1F1DF90111830083EB2DFA2F3F
:101A90006115710531F0DB011396FC93EE931297FB
:101AA00044C0F0934C02E0934B023FC06D917C9197
:101AB00011976616770608F43B01BD0112960D904A
:101AC000BC91A02DB4CF6091490270914A02681573
:101AD0007905E9F468167906D0F440911001509127
:101AE00011014115510541F44DB75EB760911401E4
:101AF00070911501461B570BE417F507C0F4F093DE
:101B00004A02E0934902F901918380830EC00E944A
:101B1000E0077C01009759F0A801BE010E94D00D9A
:101B2000CE010E947808C70104C0CE0102C080E047
:101B300090E0DF91CF911F910F91FF90EF90DF9098
:101B4000CF90BF90AF909F908F907F906F900895AF
:101B5000A1E21A2EAA1BBB1BFD010DC0AA1FBB1FB1
:101B6000EE1FFF1FA217B307E407F50720F0A21B23
:101B7000B30BE40BF50B661F771F881F991F1A9490
:101B800069F760957095809590959B01AC01BD01BA
:101B9000CF010895EE0FFF1F0590F491E02D0994F9
:101BA000FB01DC0102C001900D9241505040D8F77A
:101BB0000895FB01DC0101900D920020E1F70895EA
:101BC00010E0C6ECD0E004C0FE010E94CC0D2296CD
:0A1BD000C83CD107C9F7F894FFCF15
:101BDA0003020904C800FF00E803E8037D007D0052
:101BEA0000004D02800001FFFFFFFFFFFFFFFFFF24
:101BFA00FFFFFFFFFFFF5374617274696E67205322
:101C0A00756D6F205265706F7274696E672E2E2E15
:101C1A0000000000007D0B000000007104000000BD
:0E1C2A0000EA09540C9009BD09A209DF090067
:00000001FF
