:100000000C9464000C948C000C948C000C948C0068
:100010000C948C000C948C000C948C000C948C0030
:100020000C948C000C948C000C948C000C948C0020
:100030000C948C000C948C000C948C000C948C0010
:100040000C9491050C948C000C94D1090C94140A16
:100050000C948C000C948C000C948C000C948C00F0
:100060000C948C000C948C0000000007000201002E
:100070000003040600000000000000000102040864
:100080001020408001020408102001020408102002
:10009000040404040404040402020202020203032E
:1000A00003030303000000002300260029000000D2
:1000B0000000250028002B0000000000240027007D
:1000C0002A00A802D00AC10211241FBECFEFD8E037
:1000D000DEBFCDBF11E0A0E0B1E0E0E7FAE102C091
:1000E00005900D92A635B107D9F712E0A6E5B1E06B
:1000F00001C01D92A334B107E1F710E0C6ECD0E0D7
:1001000004C02297FE010E94170DC23CD107C9F717
:100110000E94270B0C942B0D0C9400008CE591E0B1
:100120000E94E6024CED50E063E080E691E00E9420
:10013000710346E950E062E080E691E00E947103BD
:1001400046E950E061E080E691E00E94710346E9F3
:1001500050E060E080E691E00E9471034CED50E0D9
:1001600067E080E691E00E94710340E855E260E0BC
:1001700070E084E991E00E944F0A6EE171E084E949
:1001800091E00E9427091092590110925801089598
:1001900041E061E771E089E791E00C94DD040E94A1
:1001A000C8008091770190917801883E9340C0F01B
:1001B0008091750190917601883E934088F08091FE
:1001C000730190917401883E934050F081E020913A
:1001D000710130917201283E334018F080E008959B
:1001E00081E008950F931F93CF93DF93EC010E945A
:1001F000C80068E371E0CE010E94A20B01E711E0A4
:10020000F801819191918F01883E934010F461E350
:1002100001C060E3CE010E94E50B21E0093712071F
:1002200079F7CE01DF91CF911F910F910895CF9370
:10023000DF93CDB7DEB727970FB6F894DEBF0FBEBA
:10024000CDBF0E94CF00882321F00E94CF008111F2
:100250003DC060E671E0CE0101960E94870360E038
:1002600070E0CE0101960E94F80BFC018081813381
:1002700019F484E090E025C064E070E0CE010196BE
:100280000E94F80BFC018081813319F485E090E035
:1002900018C061E070E0CE0101960E94F80BFC01ED
:1002A0008081813309F008C162E070E0CE010196DF
:1002B0000E94F80BFC018081813309F0FDC086E0CB
:1002C00090E090935901809358011AC0CE01019695
:1002D0000E94F20063E070E0CE0101960E94F80BEC
:1002E000FC018081813309F495C062E070E0CE01A9
:1002F00001960E94F80BFC018081813309F48AC0C9
:10030000CE0101960E94340B8091580190915901C1
:10031000009729F4609104017091050107C08130B4
:10032000910549F460910601709107018CE591E017
:100330000E94590355C08230910561F44091060135
:1003400050910701609104017091050171956195CB
:1003500071093AC08330910541F4409104015091F4
:1003600005015195419551092BC08430910549F4FF
:10037000409106015091070166277727641B750B92
:1003800023C08530910549F4609106017091070101
:1003900044275527461B570B17C08630910549F453
:1003A000409106015091070160910401709105018F
:1003B0000BC08730910569F440910401509105010B
:1003C00060910601709107018CE591E00E94FB02AB
:1003D00007C08336910521F48CE591E00E94E60286
:1003E000209158013091590180915A0190915B01FF
:1003F0002817390751F480915601909157010196C1
:1004000090935701809356019AC010925701109211
:10041000560195C060910401709105017195619537
:1004200071098CE591E00E9459036CE271E080E073
:1004300090E00E94FE0563E070E0CE0101960E940C
:10044000F80BFC0180818133E9F462E070E0CE01B9
:1004500001960E94F80BFC018081813399F4609130
:1004600006017091070144275527461B570B8CE561
:1004700091E00E94FB026CE271E080E090E00E945B
:10048000FE053ECF62E070E0CE0101960E94F80BBF
:10049000FC0120818091060190910701213331F404
:1004A00066277727681B790BAC01E1CF44275527D6
:1004B000481B590BBC01DBCF61E070E0CE01019617
:1004C0000E94F80BFC018081813319F482E090E0F6
:1004D000F8CE63E070E0CE0101960E94F80BFC01BB
:1004E0008081813369F462E070E0CE0101960E9460
:1004F000F80BFC018081813319F487E090E0E1CEB4
:1005000063E070E0CE0101960E94F80BFC0180814F
:10051000813319F483E090E0D4CE62E070E0CE0144
:1005200001960E94F80BFC018081813319F481E06F
:1005300090E0C7CE1092590110925801E1CE279653
:100540000FB6F894DEBF0FBECDBFDF91CF910895F7
:100550000F930FEF20EA3FE044E060E071E089E7AD
:1005600091E00E94460580E691E00E945C0305E070
:1005700026E04AE06BE08CE591E00E94CB020F910F
:10058000089583E491E090937A018093790189E75B
:1005900091E00C9467050F93CF93DF93EC01862FC6
:1005A000688349832A830B8361E00E94BA0761E074
:1005B00089810E94BA0761E08A810E94BA0761E0DE
:1005C0008B81DF91CF910F910C94BA07CF93DF937A
:1005D000EC0160E088810E94F30760E089810E945D
:1005E000F30760E08A810E94F30760E08B81DF916E
:1005F000CF910C94F307EF92FF920F931F93CF9339
:10060000DF93EC017B018A016115710561F44115ED
:10061000510509F043C0DF91CF911F910F91FF90D9
:10062000EF900C94E6021616170644F488810E9497
:100630006F0860E089810E94F3070BC060E0888149
:100640000E94F307662777276E197F0989810E9428
:100650006F081016110674F4B8018A810E946F08A1
:1006600060E08B81DF91CF911F910F91FF90EF9010
:100670000C94F30701151105A9F060E08A810E942E
:10068000F30766277727601B710B8B81DF91CF9172
:100690001F910F91FF90EF900C946F0814161506A0
:1006A00064F7DACFDF91CF911F910F91FF90EF9018
:1006B0000895AB010C94FB0225E0EFE0F1E0DC01D2
:1006C00001900D922A95E1F72AE0E4E1F1E0DC01E6
:1006D000159601900D922A95E1F7FC01108A178674
:1006E0000895FC0127853089253031057CF4E20F1F
:1006F000F31F6083F901EE0FFF1FE80FF91F568308
:1007000045832F5F3F4FFC01308B27870895CF92A1
:10071000DF92EF92FF920F931F93CF93DF938C01A1
:100720007B0168E371E00E94A20BE7016701E12C05
:10073000F12C89910E945208F601258136812817F3
:10074000390714F461E301C060E3C8010E94E50BBE
:10075000FFEFEF1AFF0A82E0C80ED11CE5E0EE16AB
:10076000F10439F7C801DF91CF911F910F91FF90EC
:10077000EF90DF90CF9008956F927F928F929F922B
:10078000AF92BF92CF92DF92EF92FF920F931F939F
:10079000CF93DF93EC018B018A859B85892B09F42C
:1007A00074C0D12C8C85D816E8F4ED2CF12C8E85F4
:1007B0009F85F701EE0FFF1FE00FF11F91838083EC
:1007C000EA85FB85EE0DFF1D61E080810E94F30745
:1007D000EA85FB85EE0DFF1D61E080810E94BA076E
:1007E000D394E0CF8AE090E00E942406D12C8C853F
:1007F000D816A0F4ED2CF12CEA85FB85EE0DFF1D3B
:1008000060E080810E94BA07EA85FB85EE0DFF1D3E
:1008100060E080810E94F307D394E9CF0E94DB055A
:100820006B017C010E94DB056C197D098E099F0913
:100830002E853F854901A12CB12C681579058A05C3
:100840009B0518F50E94DB053B016C187D08912C77
:100850008C85981638F7A92CB12CAA85BB85AA0DD2
:10086000BB1D8C910E942908892B51F4F501EE0FD4
:10087000FF1FE00FF11F808191816816790610F04B
:100880009394E6CF71826082FBCFDF91CF911F916D
:100890000F91FF90EF90DF90CF90BF90AF909F901F
:1008A0008F907F906F900895EF92FF920F931F9318
:1008B000CF93DF931F92CDB7DEB77C018B01DC01B4
:1008C00013961C921E92129715961C921E921497C4
:1008D00017961C921E92169719961C921E921897A4
:1008E00051961C921E925097413120F080E11C9647
:1008F0008C9302C0FC014487D7011A968D919C917C
:100900001B97892B11F030E00FC0F701848590E030
:1009100029830E946A06D7011B969C938E931A978F
:100920002981892B81F715C0F7018485381780F458
:10093000832F90E0F801E80FF91F4081D7011A9644
:10094000ED91FC911B97E80FF91F40833F5FECCFBF
:1009500025870F90DF91CF911F910F91FF90EF901E
:100960000895CF93DF93EC018D858F3F69F061E0AF
:100970000E94BA0760E08D850E94F30788EC90E042
:10098000DF91CF910C942406DF91CF910895CF93FE
:10099000DF93EC018D858F3F69F061E00E94BA071B
:1009A00061E08D850E94F30788EC90E0DF91CF91A4
:1009B0000C942406DF91CF910895DF92EF92FF927D
:1009C0000F931F93CF93DF93CDB7DEB7A0970FB6EA
:1009D000F894DEBF0FBECDBF8C017B01D42E8FEF0C
:1009E000840F823020F4C8010E94C70403C0C801EC
:1009F0000E94B104D801ED91FC910190F081E02DAD
:100A0000B701C8010995C8010E94B104B2E0DB1228
:100A10002FC0D801ED91FC910190F081E02DBE0135
:100A20006F5F7F4FC801099540E0F8018485481742
:100A3000F8F4842F90E0880F991FF701E80FF91F51
:100A400021E030E02C0F3D1F820F931FD8011E962E
:100A50002D913C911F97DC018D919C91281B390BA6
:100A600080819181820F931F918380834F5FDDCFBF
:100A7000A0960FB6F894DEBF0FBECDBFDF91CF9129
:100A80001F910F91FF90EF90DF900895EF92FF92EA
:100A90000F93CF93DF93EC017901202F83E491E052
:100AA000998388831B821A821D821C821F821E8268
:100AB000198618861B861A86CE010E945404FF866A
:100AC000EE86DF91CF910F91FF90EF900895CF9335
:100AD000DF93EC018DE391E0998388838A859B8580
:100AE000009711F00E9402078C819D81009711F000
:100AF0000E94020788859985009711F00E940207DD
:100B00008A819B81009711F00E9402078E819F814C
:100B1000009721F0DF91CF910C940207DF91CF91E4
:100B200008951F920F920FB60F9211242F933F93A7
:100B30008F939F93AF93BF9380918C0190918D0180
:100B4000A0918E01B0918F0130918B0123E0230F92
:100B50002D3720F40196A11DB11D05C026E8230FF5
:100B60000296A11DB11D20938B0180938C0190935F
:100B70008D01A0938E01B0938F018091900190918F
:100B80009101A0919201B09193010196A11DB11D17
:100B90008093900190939101A0939201B09393015F
:100BA000BF91AF919F918F913F912F910F900FBE69
:100BB0000F901F9018953FB7F894809190019091F5
:100BC0009101A0919201B091930126B5A89B05C017
:100BD0002F3F19F00196A11DB11D3FBF6627782F49
:100BE000892F9A2F620F711D811D911D42E0660FA2
:100BF000771F881F991F4A95D1F70895CF92DF92EA
:100C0000EF92FF92CF93DF936B017C010E94DB0593
:100C1000EB01C114D104E104F10479F00E94DB0579
:100C20006C1B7D0B683E7340A0F381E0C81AD108AD
:100C3000E108F108C851DC4FECCFDF91CF91FF9074
:100C4000EF90DF90CF9008950197009739F0880FCB
:100C5000991F880F991F02970197F1F708957894CB
:100C600084B5826084BD84B5816084BD85B58260B1
:100C700085BD85B5816085BDEEE6F0E0808181604F
:100C80008083E1E8F0E0108280818260808380814F
:100C900081608083E0E8F0E0808181608083E1EB27
:100CA000F0E0808184608083E0EBF0E0808181600F
:100CB0008083EAE7F0E080818460808380818260C5
:100CC00080838081816080838081806880831092AE
:100CD000C1000895CF93DF938230910510F482E034
:100CE00090E0E0914102F091420220E030E0A0E08B
:100CF000B0E0309739F14081518148175907B8F079
:100D00004817590771F482819381109729F013963F
:100D10009C938E9312972CC0909342028093410231
:100D200027C02115310531F04217530718F0A901EA
:100D3000DB0101C0EF019A01BD01DF010280F381F7
:100D4000E02DD7CF21153105F9F0281B390B2430C0
:100D5000310580F48A819B816115710521F0FB01C9
:100D60009383828304C09093420280934102FE01E8
:100D7000329644C0FE01E20FF31F819391932250FB
:100D80003109398328833AC020913F0230914002D3
:100D9000232B41F420910A0130910B013093400242
:100DA00020933F022091080130910901211531055E
:100DB00041F42DB73EB740910C0150910D01241B19
:100DC000350BE0913F02F0914002E217F307A0F4E7
:100DD0002E1B3F0B2817390778F0AC014E5F5F4F91
:100DE0002417350748F04E0F5F1F50934002409381
:100DF0003F028193919302C0E0E0F0E0CF01DF91E8
:100E0000CF910895CF93DF93009709F487C0FC0139
:100E1000329713821282C0914102D09142022097F0
:100E200081F420813181280F391F80913F029091F8
:100E300040028217930779F5F0934002E0933F0256
:100E40006DC0DE0120E030E0AE17BF0750F412960F
:100E50004D915C9113979D014115510509F1DA01FE
:100E6000F3CFB383A28340815181840F951F8A17EA
:100E70009B0771F48D919C911197840F951F029699
:100E80009183808312968D919C9113979383828393
:100E90002115310529F4F0934202E09341023EC04E
:100EA000D9011396FC93EE9312974D915D91A40F87
:100EB000B51FEA17FB0779F480819181840F951F94
:100EC0000296D90111969C938E93828193811396F9
:100ED0009C938E931297E0E0F0E08A819B810097CB
:100EE00019F0FE01EC01F9CFCE010296288139817B
:100EF000820F931F20913F0230914002281739073B
:100F000069F4309729F4109242021092410202C013
:100F100013821282D0934002C0933F02DF91CF919F
:100F20000895833081F028F4813099F08230A1F067
:100F300008958630A9F08730B9F08430D1F48091DB
:100F400080008F7D03C0809180008F778093800028
:100F5000089584B58F7702C084B58F7D84BD0895D0
:100F60008091B0008F7703C08091B0008F7D809317
:100F7000B0000895CF93DF9390E0FC01E458FF4F59
:100F80002491FC01E057FF4F8491882349F190E0C0
:100F9000880F991FFC01E854FF4FA591B491825529
:100FA0009F4FFC01C591D4919FB7611108C0F8947F
:100FB0008C91209582238C93888182230AC0623091
:100FC00051F4F8948C91322F309583238C9388813F
:100FD000822B888304C0F8948C91822B8C939FBFC2
:100FE000DF91CF9108950F931F93CF93DF931F92BB
:100FF000CDB7DEB7282F30E0F901E859FF4F8491D3
:10100000F901E458FF4F1491F901E057FF4F0491A3
:101010000023C9F0882321F069830E949107698128
:10102000E02FF0E0EE0FFF1FE255FF4FA591B491C6
:101030009FB7F8948C91611103C01095812301C072
:10104000812B8C939FBF0F90DF91CF911F910F91B8
:101050000895CF93DF93282F30E0F901E859FF4F2F
:101060008491F901E458FF4FD491F901E057FF4F03
:10107000C491CC2391F081110E949107EC2FF0E0F4
:10108000EE0FFF1FEC55FF4FA591B4912C912D232E
:1010900081E090E021F480E002C080E090E0DF9108
:1010A000CF9108958E3008F08E50877020910E01F8
:1010B00090E4299F90011124822B80937C008091E1
:1010C0007A00806480937A0080917A0086FDFCCF5C
:1010D000809178002091790090E0922B08951F93E1
:1010E000CF93DF93182FEB0161E00E94BA0720979E
:1010F00011F460E004C0CF3FD10539F461E0812FE5
:10110000DF91CF911F910C94F307E12FF0E0E859A4
:10111000FF4FE491E330F9F048F4E130B9F0E23008
:10112000A1F584B5806284BDC8BD34C0E630E9F065
:10113000E73019F1E43049F58091800080628093B6
:101140008000D0938B00C0938A0024C084B580684F
:1011500084BDC7BD1FC080918000806880938000DF
:10116000D0938900C093880015C08091B00080683A
:101170008093B000C093B3000DC08091B000806236
:101180008093B000C093B40005C0C038D1050CF006
:10119000B5CFAFCFDF91CF911F910895CF92DF925E
:1011A000EF92FF920F931F93CF93DF936C017A011D
:1011B000EB01E60EF71E00E010E0CE15DF0561F052
:1011C0006991D601ED91FC910190F081E02DC6016D
:1011D0000995080F191FF1CFC801DF91CF911F9119
:1011E0000F91FF90EF90DF90CF90089561157105FA
:1011F00081F0DB010D900020E9F7AD01415051096C
:10120000461B570BDC01ED91FC910280F381E02D30
:10121000099480E090E00895DC01ED91FC9101904B
:10122000F081E02D09940F931F93CF93DF93EC018E
:101230006DE00E940C098C016AE0CE010E940C094D
:10124000800F911FDF91CF911F910F9108950F9300
:101250001F93CF93DF93EC010E94F6088C01CE011F
:101260000E941309800F911FDF91CF911F910F9161
:101270000895FC0124853585F901E05CFF4F8081EC
:101280009181F901EE5BFF4F20813181821B930B2D
:101290008F7399270895FC0184859585FC01E05C96
:1012A000FF4F40815181FC01EE5BFF4F2081318176
:1012B0004217530741F00190F081E02DE80FF91F2C
:1012C000808190E008958FEF9FEF0895FC01848561
:1012D0009585FC01E05CFF4F40815181FC01EE5B94
:1012E000FF4F208131814217530779F0A081B181EE
:1012F000A80FB91F8C91208131812F5F3F4F2F7331
:1013000033273183208390E008958FEF9FEF089576
:10131000FC0181A1882329F0A489B5898C9186FFDD
:10132000FBCF11A20895CF93DF93FC01268537856B
:10133000D901A05CBF4F8D919C91119701968F733D
:101340009927E901CE5BDF4F4881598184179507C2
:10135000D9F30D90BC91A02DA20FB31F6C93A6855D
:10136000B785A05CBF4F11969C938E93A689B789D1
:101370002C9181E090E0078C02C0880F991F0A949D
:10138000E2F7282B2C9381E081A30488F589E02DD6
:1013900080818064808381E090E0DF91CF91089527
:1013A00008951F920F920FB60F9211242F933F931F
:1013B0004F938F939F93EF93FF938091C00082FD93
:1013C0001CC04091C60080913A0290913B02019668
:1013D0008F73992720913C0230913D028217930729
:1013E00071F0E0913A02F0913B02E650FE4F4083EB
:1013F00090933B0280933A0202C08091C600FF9115
:10140000EF919F918F914F913F912F910F900FBE30
:101410000F901F90189584E991E00E943909892B5B
:1014200011F00C94D00908951F920F920FB60F92ED
:1014300011242F933F938F939F93EF93FF932091CA
:10144000F6013091F7018091F8019091F901281788
:10145000390731F48091C1008F7D8093C10014C0A1
:10146000E091F801F091F901EA54FE4F208180915A
:10147000F8019091F90101968F7399279093F901E2
:101480008093F8012093C600FF91EF919F918F9177
:101490003F912F910F900FBE0F901F901895CF92F4
:1014A000DF92EF92FF92CF93DF93EC016A017B0111
:1014B000411581EE580761057105F9F0EC89FD8948
:1014C00081E090E008A002C0880F991F0A94E2F71B
:1014D000808360E079E08DE390E0A70196010E94AF
:1014E000F30C21503109410951095695479537951B
:1014F0002795211580E1380798F0EC89FD89108245
:1015000060E874E88EE190E0A70196010E94F30C78
:10151000215031094109510956954795379527952D
:10152000E889F9893083EA89FB89208319A2EE8949
:10153000FF89408181E090E09C010C8C02C0220F69
:10154000331F0A94E2F7422B4083EE89FF894081E2
:101550009C010D8C02C0220F331F0A94E2F7422B2C
:101560004083EE89FF8940819C010E8C02C0220FCE
:10157000331F0A94E2F7422B4083EE89FF892081D2
:101580000F8C02C0880F991F0A94E2F7809582237E
:101590008083DF91CF91FF90EF90DF90CF900895FF
:1015A000109297011092960188EE93E0A0E0B0E0CF
:1015B0008093980190939901A0939A01B0939B0115
:1015C00089E491E090939501809394018AEF91E0F2
:1015D0009093A1018093A00186EB91E09093A301E9
:1015E0008093A20185EC90E09093A5018093A401E3
:1015F00084EC90E09093A7018093A60180EC90E0AA
:101600009093A9018093A80181EC90E09093AB01A5
:101610008093AA0182EC90E09093AD018093AC019D
:1016200086EC90E09093AF018093AE0184E08093CC
:10163000B00183E08093B10187E08093B20185E03F
:101640008093B30181E08093B401089508950E94CE
:101650002F060E948E00CBE0DAE00E94170120974F
:10166000E1F30E940B0AF9CFFC01808191810C9477
:101670000207CF93DF93EC0188819981009711F0E5
:101680000E940207198218821D821C821B821A8204
:10169000DF91CF9108950F931F93CF93DF93EC01C8
:1016A0008B016F5F7F4F888199810E940A0C0097A0
:1016B00031F0998388831B830A8381E001C080E035
:1016C000DF91CF911F910F910895CF93DF93EC019C
:1016D00088819981892B29F08A819B8186179707B8
:1016E00060F4CE010E944B0B882341F08C819D81D8
:1016F000892B19F4E881F981108281E0DF91CF9183
:101700000895EF92FF920F931F93CF93DF93EC0115
:101710007B018A01BA010E94650B811104C0CE01D0
:101720000E94390B07C01D830C83B7018881998102
:101730000E94240DCE01DF91CF911F910F91FF9058
:10174000EF900895FC01118210821382128215829B
:10175000148216826115710559F0FB010190002079
:10176000E9F7AF0141505109461B570B0C94810B0F
:101770000895EF92FF920F931F93CF93DF93EC01A5
:101780007B010C811D816115710511F480E016C08B
:101790004115510591F0040F151FB8010E94650B0A
:1017A0008823A1F3288139818C819D81B701820F23
:1017B000931F0E94240D1D830C8381E0DF91CF9144
:1017C0001F910F91FF90EF900895CF93DF9300D07A
:1017D000CDB7DEB769831A8241E050E0BE016F5F8A
:1017E0007F4F0E94B90B0F900F90DF91CF9108951A
:1017F000FC01848195816817790720F480819181AB
:10180000009729F410923E028EE392E00895860F2D
:10181000971F08956F927F928F929F92AF92BF927F
:10182000CF92DF92EF92FF920F931F93CF93DF93AC
:10183000EC01CB01209781F4DF91CF911F910F91A3
:10184000FF90EF90DF90CF90BF90AF909F908F90E0
:101850007F906F900C946A06FE01E60FF71F9E01C1
:1018600022503109E217F30708F4ACC0D9010D91F9
:101870001C91119706171707B8F00530110508F4E9
:101880009FC0A801445051094617570708F498C053
:1018900002501109061B170B019311936D937C9352
:1018A000CF010E9402078CC05B01A01AB10A4E0151
:1018B000800E911EA0914102B0914202612C712CC8
:1018C00060E070E0109709F449C0A815B905C9F5A2
:1018D000ED90FC901197670142E0C40ED11CCA1430
:1018E000DB0478F147018A189B08640142E0C40ECA
:1018F000D11C1296BC9012971396AC91B5E0CB1602
:10190000D10440F0B282A38391828082D9018D9369
:101910009C9309C00E5F1F4F0E0D1F1DF90111830F
:101920000083EB2DFA2F6115710531F0DB01139661
:10193000FC93EE93129744C0F0934202E09341026D
:101940003FC06D917C9111976616770608F43B01B4
:10195000BD0112960D90BC91A02DB4CF60913F02B5
:101960007091400268157905E9F468167906D0F49B
:1019700040910801509109014115510541F44DB7BD
:101980005EB760910C0170910D01461B570BE41777
:10199000F507C0F4F0934002E0933F02F901918310
:1019A00080830EC00E946A067C01009759F0A8014E
:1019B000BE010E941B0DCE010E940207C70104C098
:1019C000CE0102C080E090E0DF91CF911F910F9196
:1019D000FF90EF90DF90CF90BF90AF909F908F904F
:1019E0007F906F900895A1E21A2EAA1BBB1BFD01E8
:1019F0000DC0AA1FBB1FEE1FFF1FA217B307E407EE
:101A0000F50720F0A21BB30BE40BF50B661F771F45
:101A1000881F991F1A9469F7609570958095909525
:101A20009B01AC01BD01CF010895EE0FFF1F059092
:101A3000F491E02D0994FB01DC0102C001900D92AC
:101A400041505040D8F70895FB01DC0101900D9200
:101A50000020E1F7089510E0C6ECD0E004C0FE01DC
:101A60000E94170D2296C83CD107C9F7F894FFCF02
:101A700003020904C800FF0000004302800001FFC8
:101A8000FFFFFFFFFFFFFFFFFFFFFFFFFFFF53749D
:101A9000617274696E672053756D6F205265706F47
:101AA0007274696E672E2E2E0000000000260B0057
:101AB000000000BC03000000009309CE083909664D
:061AC000094B0988090032
:00000001FF
