:100000000C9464000C948C000C948C000C948C0068
:100010000C948C000C948C000C948C000C948C0030
:100020000C948C000C948C000C948C000C948C0020
:100030000C948C000C948C000C948C000C948C0010
:100040000C946F020C948C000C9415070C945807B8
:100050000C948C000C948C000C948C000C948C00F0
:100060000C948C000C948C0000000007000201002E
:100070000003040600000000000000000102040864
:100080001020408001020408102001020408102002
:10009000040404040404040402020202020203032E
:1000A00003030303000000002300260029000000D2
:1000B0000000250028002B0000000000240027007D
:1000C0002A0018011408250111241FBECFEFD8E023
:1000D000DEBFCDBF11E0A0E0B1E0EAE5F1E102C092
:1000E00005900D92A438B107D9F712E0A4E8B1E069
:1000F00001C01D92AD34B107E1F710E0C6ECD0E0CD
:1001000004C02297FE010E949C08C23CD107C9F797
:100110000E946B080C94A0080C94000061E08AE037
:100120000E94980461E08BE00E94980461E086E000
:100130000E94980461E085E00E94980440E855E23E
:1001400060E070E08FE991E00E94930760E08AE050
:100150000E94D10460E08BE00E94D10460E086E060
:100160000E94D10460E085E00E94D10468EE73E053
:1001700080E090E00E94DC026BE071E08FE991E0AA
:100180000C94A80566E271E08FE991E00E94A80551
:1001900083E00E9430054AE050E0BC018FE991E025
:1001A0000E945D0664E671E08FE991E00E948B0594
:1001B00082E00E9430054AE050E0BC018FE991E006
:1001C0000E945D0664E671E08FE991E00E948B0574
:1001D00081E00E9430054AE050E0BC018FE991E0E7
:1001E0000E945D0664E671E08FE991E00E948B0554
:1001F00080E00E9430054AE050E0BC018FE991E0C8
:100200000E945D0664E671E08FE991E00E948B0533
:1002100087E00E9430054AE050E0BC018FE991E0A0
:100220000E94650668EE73E080E090E00C94DC02CA
:100230000F930FEF20EA3FE044E060E071E084E8D4
:1002400091E00E9424020F91089581E791E090933C
:1002500085018093840184E891E00C9445026F92BB
:100260007F928F929F92AF92BF92CF92DF92EF9246
:10027000FF920F931F93CF93DF93EC018B018A853D
:100280009B85892B09F474C0D12C8C85D816E8F491
:10029000ED2CF12C8E859F85F701EE0FFF1FE00FEF
:1002A000F11F91838083EA85FB85EE0DFF1D61E0E0
:1002B00080810E94D104EA85FB85EE0DFF1D61E07F
:1002C00080810E949804D394E0CF8AE090E00E945D
:1002D0000203D12C8C85D816A0F4ED2CF12CEA85E4
:1002E000FB85EE0DFF1D60E080810E949804EA8589
:1002F000FB85EE0DFF1D60E080810E94D104D39448
:10030000E9CF0E94B9026B017C010E94B9026C190D
:100310007D098E099F092E853F854901A12CB12CAD
:10032000681579058A059B0518F50E94B9023B01FD
:100330006C187D08912C8C85981638F7A92CB12C57
:10034000AA85BB85AA0DBB1D8C910E940705892B30
:1003500051F4F501EE0FFF1FE00FF11F8081918135
:100360006816790610F09394E6CF71826082FBCF15
:10037000DF91CF911F910F91FF90EF90DF90CF9081
:10038000BF90AF909F908F907F906F900895EF9265
:10039000FF920F931F93CF93DF931F92CDB7DEB7DA
:1003A0007C018B01DC0113961C921E92129715960C
:1003B0001C921E92149717961C921E9216971996CD
:1003C0001C921E92189751961C921E925097413182
:1003D00020F080E11C968C9302C0FC014487D70179
:1003E0001A968D919C911B97892B11F030E00FC0CC
:1003F000F701848590E029830E944803D7011B966A
:100400009C938E931A972981892B81F715C0F70148
:100410008485381780F4832F90E0F801E80FF91FE6
:100420004081D7011A96ED91FC911B97E80FF91FB7
:1004300040833F5FECCF25870F90DF91CF911F91D5
:100440000F91FF90EF900895EF92FF920F93CF934B
:10045000DF93EC017901202F81E791E09983888374
:100460001B821A821D821C821F821E821986188698
:100470001B861A86CE010E94C701FF86EE86DF9199
:10048000CF910F91FF90EF900895CF93DF93EC0100
:100490008BE691E0998388838A859B85009711F08C
:1004A0000E94E0038C819D81009711F00E94E0037F
:1004B00088859985009711F00E94E0038A819B81CD
:1004C000009711F00E94E0038E819F81009721F038
:1004D000DF91CF910C94E003DF91CF9108951F92AB
:1004E0000F920FB60F9211242F933F938F939F93E8
:1004F000AF93BF938091970190919801A09199013A
:10050000B0919A013091960123E0230F2D3720F40A
:100510000196A11DB11D05C026E8230F0296A11D5D
:10052000B11D209396018093970190939801A09319
:100530009901B0939A0180919B0190919C01A091A7
:100540009D01B0919E010196A11DB11D80939B015B
:1005500090939C01A0939D01B0939E01BF91AF9198
:100560009F918F913F912F910F900FBE0F901F90F1
:1005700018953FB7F89480919B0190919C01A091B0
:100580009D01B0919E0126B5A89B05C02F3F19F093
:100590000196A11DB11D3FBF6627782F892F9A2F85
:1005A000620F711D811D911D42E0660F771F881F2C
:1005B000991F4A95D1F70895CF92DF92EF92FF925B
:1005C000CF93DF936B017C010E94B902EB01C11450
:1005D000D104E104F10479F00E94B9026C1B7D0B97
:1005E000683E7340A0F381E0C81AD108E108F10821
:1005F000C851DC4FECCFDF91CF91FF90EF90DF90AF
:10060000CF9008950197009739F0880F991F880FB0
:10061000991F02970197F1F70895789484B5826045
:1006200084BD84B5816084BD85B5826085BD85B596
:10063000816085BDEEE6F0E0808181608083E1E845
:10064000F0E010828081826080838081816080837D
:10065000E0E8F0E0808181608083E1EBF0E0808180
:1006600084608083E0EBF0E0808181608083EAE752
:10067000F0E08081846080838081826080838081DB
:10068000816080838081806880831092C10008959A
:10069000CF93DF938230910510F482E090E0E091F7
:1006A0004B02F0914C0220E030E0A0E0B0E0309747
:1006B00039F14081518148175907B8F04817590757
:1006C00071F482819381109729F013969C938E93F5
:1006D00012972CC090934C0280934B0227C0211597
:1006E000310531F04217530718F0A901DB0101C0B1
:1006F000EF019A01BD01DF010280F381E02DD7CF28
:1007000021153105F9F0281B390B2430310580F40F
:100710008A819B816115710521F0FB01938382839E
:1007200004C090934C0280934B02FE01329644C069
:10073000FE01E20FF31F8193919322503109398317
:1007400028833AC02091490230914A02232B41F478
:10075000209106013091070130934A02209349020B
:1007600020910401309105012115310541F42DB787
:100770003EB74091080150910901241B350BE091CF
:100780004902F0914A02E217F307A0F42E1B3F0B37
:100790002817390778F0AC014E5F5F4F24173507F3
:1007A00048F04E0F5F1F50934A02409349028193D5
:1007B000919302C0E0E0F0E0CF01DF91CF91089586
:1007C000CF93DF93009709F487C0FC01329713821F
:1007D0001282C0914B02D0914C02209781F420816B
:1007E0003181280F391F8091490290914A02821766
:1007F000930779F5F0934A02E09349026DC0DE0158
:1008000020E030E0AE17BF0750F412964D915C9196
:1008100013979D014115510509F1DA01F3CFB38317
:10082000A28340815181840F951F8A179B0771F421
:100830008D919C911197840F951F029691838083CF
:1008400012968D919C911397938382832115310584
:1008500029F4F0934C02E0934B023EC0D901139669
:10086000FC93EE9312974D915D91A40FB51FEA177B
:10087000FB0779F480819181840F951F0296D9013D
:1008800011969C938E938281938113969C938E9361
:100890001297E0E0F0E08A819B81009719F0FE0159
:1008A000EC01F9CFCE01029628813981820F931F86
:1008B0002091490230914A022817390769F430978C
:1008C00029F410924C0210924B0202C01382128241
:1008D000D0934A02C0934902DF91CF9108958330AB
:1008E00081F028F4813099F08230A1F008958630AB
:1008F000A9F08730B9F08430D1F4809180008F7DE9
:1009000003C0809180008F7780938000089584B524
:100910008F7702C084B58F7D84BD08958091B0002B
:100920008F7703C08091B0008F7D8093B0000895D1
:10093000CF93DF9390E0FC01E458FF4F2491FC013A
:10094000E057FF4F8491882349F190E0880F991F69
:10095000FC01E854FF4FA591B49182559F4FFC01D3
:10096000C591D4919FB7611108C0F8948C912095DE
:1009700082238C93888182230AC0623051F4F894D8
:100980008C91322F309583238C938881822B88839E
:1009900004C0F8948C91822B8C939FBFDF91CF91F0
:1009A00008950F931F93CF93DF931F92CDB7DEB7B8
:1009B000282F30E0F901E859FF4F8491F901E458FC
:1009C000FF4F1491F901E057FF4F04910023C9F044
:1009D000882321F069830E946F046981E02FF0E091
:1009E000EE0FFF1FE255FF4FA591B4919FB7F8940A
:1009F0008C91611103C01095812301C0812B8C93D0
:100A00009FBF0F90DF91CF911F910F910895CF93CA
:100A1000DF93282F30E0F901E859FF4F8491F90165
:100A2000E458FF4FD491F901E057FF4FC491CC2314
:100A300091F081110E946F04EC2FF0E0EE0FFF1F88
:100A4000EC55FF4FA591B4912C912D2381E090E0BE
:100A500021F480E002C080E090E0DF91CF91089522
:100A60008E3008F08E50877020910A0190E4299F03
:100A700090011124822B80937C0080917A00806405
:100A800080937A0080917A0086FDFCCF8091780077
:100A90002091790090E0922B0895CF92DF92EF920F
:100AA000FF920F931F93CF93DF936C017A01EB01B9
:100AB000E60EF71E00E010E0CE15DF0561F069914B
:100AC000D601ED91FC910190F081E02DC6010995D0
:100AD000080F191FF1CFC801DF91CF911F910F911E
:100AE000FF90EF90DF90CF9008956115710581F030
:100AF000DB010D900020E9F7AD0141505109461B83
:100B0000570BDC01ED91FC910280F381E02D0994FB
:100B100080E090E008950C947505DC01ED91FC9166
:100B20000190F081E02D09940F931F93CF93DF93F1
:100B3000EC016DE00E948D058C016AE0CE010E94FF
:100B40008D05800F911FDF91CF911F910F91089517
:100B50000F931F93CF93DF93EC010E9475058C01D7
:100B6000CE010E949405800F911FDF91CF911F91BC
:100B70000F9108958F929F92AF92BF92CF92DF9282
:100B8000EF92FF920F931F93CF93DF93CDB7DEB712
:100B9000A1970FB6F894DEBF0FBECDBF7C01C42E67
:100BA000E52FCB01D22E19A221E02D1510F02AE05D
:100BB000D22E8E010F5D1F4F8D2C912CA12CB12CAC
:100BC0006C2D7E2FA50194010E9478088C2DD29E59
:100BD00080191124015011098A3014F4805D01C07C
:100BE000895CF8018083211531054105510521F00B
:100BF000C22EE32FCA01E4CFB801C7010E947505D8
:100C0000A1960FB6F894DEBF0FBECDBFDF91CF9196
:100C10001F910F91FF90EF90DF90CF90BF90AF901A
:100C20009F908F900895CF92DF92EF92FF920F9353
:100C30001F93CF93DF93EC016A017B0121153105EE
:100C400079F4E881F9810190F081E02D642FDF9142
:100C5000CF911F910F91FF90EF90DF90CF9009946B
:100C60002A303105E9F477FF1AC06DE20E948D0544
:100C70008C0144275527BA014C195D096E097F097B
:100C80002AE0CE010E94BA05800F911FDF91CF911B
:100C90001F910F91FF90EF90DF90CF9008952AE081
:100CA000B701A601CE01DF91CF911F910F91FF9067
:100CB000EF90DF90CF900C94BA059A01AB016627B4
:100CC00057FD6095762F0C9413060F931F93CF93C7
:100CD000DF93EC019A01AB01662757FD6095762FF3
:100CE0000E9413068C01CE010E949405800F911F73
:100CF000DF91CF911F910F910895FC0124853585D7
:100D0000F901E05CFF4F80819181F901EE5BFF4FBB
:100D100020813181821B930B8F7399270895FC01E9
:100D200084859585FC01E05CFF4F40815181FC0189
:100D3000EE5BFF4F208131814217530741F0019054
:100D4000F081E02DE80FF91F808190E008958FEF8A
:100D50009FEF0895FC0184859585FC01E05CFF4FC1
:100D600040815181FC01EE5BFF4F208131814217B0
:100D7000530779F0A081B181A80FB91F8C91208110
:100D800031812F5F3F4F2F7333273183208390E0D2
:100D900008958FEF9FEF0895FC0181A1882329F02A
:100DA000A489B5898C9186FFFBCF11A20895CF93BA
:100DB000DF93FC0126853785D901A05CBF4F8D915B
:100DC0009C91119701968F739927E901CE5BDF4FB4
:100DD0004881598184179507D9F30D90BC91A02DB6
:100DE000A20FB31F6C93A685B785A05CBF4F119669
:100DF0009C938E93A689B7892C9181E090E0078C13
:100E000002C0880F991F0A94E2F7282B2C9381E0E7
:100E100081A30488F589E02D80818064808381E04E
:100E200090E0DF91CF91089508951F920F920FB631
:100E30000F9211242F933F934F938F939F93EF9390
:100E4000FF938091C00082FD1CC04091C60080913C
:100E500045029091460201968F739927209147028F
:100E6000309148028217930771F0E0914502F091AA
:100E70004602EB5FFD4F408390934602809345020C
:100E800002C08091C600FF91EF919F918F914F9189
:100E90003F912F910F900FBE0F901F9018958FE9E3
:100EA00091E00E947D06892B11F00C94140708959F
:100EB0001F920F920FB60F9211242F933F938F938F
:100EC0009F93EF93FF932091010230910202809152
:100ED0000302909104022817390731F48091C10070
:100EE0008F7D8093C10014C0E0910302F091040251
:100EF000EF53FE4F208180910302909104020196EE
:100F00008F73992790930402809303022093C60065
:100F1000FF91EF919F918F913F912F910F900FBE75
:100F20000F901F901895CF92DF92EF92FF92CF9380
:100F3000DF93EC016A017B01411581EE58076105E1
:100F40007105F9F0EC89FD8981E090E008A002C00C
:100F5000880F991F0A94E2F7808360E079E08DE3BF
:100F600090E0A70196010E947808215031094109BB
:100F700051095695479537952795211580E13807F2
:100F800098F0EC89FD89108260E874E88EE190E0C9
:100F9000A70196010E9478082150310941095109A1
:100FA0005695479537952795E889F9893083EA89D9
:100FB000FB89208319A2EE89FF89408181E090E0BE
:100FC0009C010C8C02C0220F331F0A94E2F7422BC3
:100FD0004083EE89FF8940819C010D8C02C0220F65
:100FE000331F0A94E2F7422B4083EE89FF89408148
:100FF0009C010E8C02C0220F331F0A94E2F7422B91
:101000004083EE89FF8920810F8C02C0880F991FD1
:101010000A94E2F7809582238083DF91CF91FF903D
:10102000EF90DF90CF9008951092A2011092A1014D
:1010300088EE93E0A0E0B0E08093A3019093A40138
:10104000A093A501B093A60187E791E09093A0013A
:1010500080939F0185E092E09093AC018093AB0177
:1010600081EC91E09093AE018093AD0185EC90E02E
:101070009093B0018093AF0184EC90E09093B20123
:101080008093B10180EC90E09093B4018093B30120
:1010900081EC90E09093B6018093B50182EC90E0F2
:1010A0009093B8018093B70186EC90E09093BA01D9
:1010B0008093B90184E08093BB0183E08093BC01FD
:1010C00087E08093BD0185E08093BE0181E080933D
:1010D000BF01089508950E940D030E948E00CFE481
:1010E000D7E00E94C2002097E1F30E944F07F9CF9A
:1010F000A1E21A2EAA1BBB1BFD010DC0AA1FBB1F1C
:10110000EE1FFF1FA217B307E407F50720F0A21B8D
:10111000B30BE40BF50B661F771F881F991F1A94FA
:1011200069F760957095809590959B01AC01BD0124
:10113000CF010895EE0FFF1F0590F491E02D099463
:1011400010E0C6ECD0E004C0FE010E949C0822968C
:0A115000C83CD107C9F7F894FFCF9F
:10115A000302090400004D02800001537461727495
:10116A00696E672053756D6F205265706F7274696E
:10117A006E672E2E2E004C656674202020202020BB
:10118A002020464C65667420202020202020202024
:10119A0046726F6E742020202020202020202020DC
:1011AA004652696768742020202020202020526936
:1011BA0067687400090900000000006A080000005E
:1011CA00002F0100000000D7064D057D06AA068FF4
:0411DA0006CC060039
:00000001FF
